{
  "_format": "hh-sol-artifact-1",
  "contractName": "ApplicationManager",
  "sourceName": "contracts/ApplicationManager.sol",
  "abi": [
    {
      "inputs": [
        {
          "internalType": "address",
          "name": "initialAuthority",
          "type": "address"
        }
      ],
      "stateMutability": "nonpayable",
      "type": "constructor"
    },
    {
      "inputs": [
        {
          "internalType": "address",
          "name": "authority",
          "type": "address"
        }
      ],
      "name": "AccessManagedInvalidAuthority",
      "type": "error"
    },
    {
      "inputs": [
        {
          "internalType": "address",
          "name": "caller",
          "type": "address"
        },
        {
          "internalType": "uint32",
          "name": "delay",
          "type": "uint32"
        }
      ],
      "name": "AccessManagedRequiredDelay",
      "type": "error"
    },
    {
      "inputs": [
        {
          "internalType": "address",
          "name": "caller",
          "type": "address"
        }
      ],
      "name": "AccessManagedUnauthorized",
      "type": "error"
    },
    {
      "inputs": [],
      "name": "ReentrancyGuardReentrantCall",
      "type": "error"
    },
    {
      "anonymous": false,
      "inputs": [
        {
          "indexed": false,
          "internalType": "uint256",
          "name": "id",
          "type": "uint256"
        },
        {
          "components": [
            {
              "internalType": "uint256",
              "name": "id",
              "type": "uint256"
            },
            {
              "internalType": "string",
              "name": "name",
              "type": "string"
            },
            {
              "internalType": "address",
              "name": "account",
              "type": "address"
            }
          ],
          "indexed": false,
          "internalType": "struct IApplicationManager.Application",
          "name": "application",
          "type": "tuple"
        }
      ],
      "name": "ApplicationCreated",
      "type": "event"
    },
    {
      "anonymous": false,
      "inputs": [
        {
          "indexed": false,
          "internalType": "uint256",
          "name": "id",
          "type": "uint256"
        },
        {
          "components": [
            {
              "internalType": "uint256",
              "name": "id",
              "type": "uint256"
            },
            {
              "internalType": "string",
              "name": "name",
              "type": "string"
            },
            {
              "internalType": "address",
              "name": "account",
              "type": "address"
            }
          ],
          "indexed": false,
          "internalType": "struct IApplicationManager.Application",
          "name": "application",
          "type": "tuple"
        }
      ],
      "name": "ApplicationDeleted",
      "type": "event"
    },
    {
      "anonymous": false,
      "inputs": [
        {
          "indexed": false,
          "internalType": "uint256",
          "name": "id",
          "type": "uint256"
        },
        {
          "components": [
            {
              "internalType": "uint256",
              "name": "id",
              "type": "uint256"
            },
            {
              "internalType": "string",
              "name": "name",
              "type": "string"
            },
            {
              "internalType": "address",
              "name": "account",
              "type": "address"
            }
          ],
          "indexed": false,
          "internalType": "struct IApplicationManager.Application",
          "name": "application",
          "type": "tuple"
        }
      ],
      "name": "ApplicationUpdated",
      "type": "event"
    },
    {
      "anonymous": false,
      "inputs": [
        {
          "indexed": false,
          "internalType": "address",
          "name": "authority",
          "type": "address"
        }
      ],
      "name": "AuthorityUpdated",
      "type": "event"
    },
    {
      "inputs": [],
      "name": "authority",
      "outputs": [
        {
          "internalType": "address",
          "name": "",
          "type": "address"
        }
      ],
      "stateMutability": "view",
      "type": "function"
    },
    {
      "inputs": [
        {
          "components": [
            {
              "internalType": "string",
              "name": "name",
              "type": "string"
            },
            {
              "internalType": "address",
              "name": "account",
              "type": "address"
            }
          ],
          "internalType": "struct IApplicationManager.ApplicationDto",
          "name": "dto",
          "type": "tuple"
        }
      ],
      "name": "createApplication",
      "outputs": [],
      "stateMutability": "nonpayable",
      "type": "function"
    },
    {
      "inputs": [
        {
          "internalType": "uint256",
          "name": "id",
          "type": "uint256"
        }
      ],
      "name": "deleteApplication",
      "outputs": [],
      "stateMutability": "nonpayable",
      "type": "function"
    },
    {
      "inputs": [
        {
          "internalType": "uint256",
          "name": "id",
          "type": "uint256"
        }
      ],
      "name": "getApplication",
      "outputs": [
        {
          "components": [
            {
              "internalType": "uint256",
              "name": "id",
              "type": "uint256"
            },
            {
              "internalType": "string",
              "name": "name",
              "type": "string"
            },
            {
              "internalType": "address",
              "name": "account",
              "type": "address"
            }
          ],
          "internalType": "struct IApplicationManager.Application",
          "name": "",
          "type": "tuple"
        }
      ],
      "stateMutability": "view",
      "type": "function"
    },
    {
      "inputs": [
        {
          "internalType": "uint256",
          "name": "start",
          "type": "uint256"
        },
        {
          "internalType": "uint256",
          "name": "limit",
          "type": "uint256"
        }
      ],
      "name": "getApplications",
      "outputs": [
        {
          "components": [
            {
              "internalType": "uint256",
              "name": "id",
              "type": "uint256"
            },
            {
              "internalType": "string",
              "name": "name",
              "type": "string"
            },
            {
              "internalType": "address",
              "name": "account",
              "type": "address"
            }
          ],
          "internalType": "struct IApplicationManager.Application[]",
          "name": "",
          "type": "tuple[]"
        }
      ],
      "stateMutability": "view",
      "type": "function"
    },
    {
      "inputs": [],
      "name": "getNextApplicationId",
      "outputs": [
        {
          "internalType": "uint256",
          "name": "",
          "type": "uint256"
        }
      ],
      "stateMutability": "view",
      "type": "function"
    },
    {
      "inputs": [],
      "name": "isConsumingScheduledOp",
      "outputs": [
        {
          "internalType": "bytes4",
          "name": "",
          "type": "bytes4"
        }
      ],
      "stateMutability": "view",
      "type": "function"
    },
    {
      "inputs": [
        {
          "internalType": "address",
          "name": "newAuthority",
          "type": "address"
        }
      ],
      "name": "setAuthority",
      "outputs": [],
      "stateMutability": "nonpayable",
      "type": "function"
    },
    {
      "inputs": [
        {
          "internalType": "uint256",
          "name": "id",
          "type": "uint256"
        },
        {
          "components": [
            {
              "internalType": "string",
              "name": "name",
              "type": "string"
            },
            {
              "internalType": "address",
              "name": "account",
              "type": "address"
            }
          ],
          "internalType": "struct IApplicationManager.ApplicationDto",
          "name": "dto",
          "type": "tuple"
        }
      ],
      "name": "updateApplication",
      "outputs": [],
      "stateMutability": "nonpayable",
      "type": "function"
    }
  ],
  "bytecode": "0x6080604052348015600f57600080fd5b50604051611615380380611615833981016040819052602c916092565b80603481603e565b50506001805560c0565b600080546001600160a01b0319166001600160a01b0383169081179091556040519081527f2f658b440c35314f52658ea8a740e05b284cdc84dc9ae01e891f21b8933e7cad9060200160405180910390a150565b60006020828403121560a357600080fd5b81516001600160a01b038116811460b957600080fd5b9392505050565b611546806100cf6000396000f3fe608060405234801561001057600080fd5b50600436106100a35760003560e01c80637a9e5e4b11610076578063bf7e214f1161005b578063bf7e214f1461014d578063cec9d7da14610168578063ecdfe9b41461017957600080fd5b80637a9e5e4b146101195780638fb360371461012c57600080fd5b80631f2f4bfd146100a857806336112a14146100d157806341702a16146100e65780637823c1e314610106575b600080fd5b6100bb6100b6366004610e94565b61018c565b6040516100c89190610f22565b60405180910390f35b6100e46100df36600461107e565b6102fb565b005b6100f96100f43660046110bb565b6104ac565b6040516100c891906110dd565b6100e4610114366004610e94565b610744565b6100e4610127366004611142565b610871565b610134610904565b6040516001600160e01b031990911681526020016100c8565b6000546040516001600160a01b0390911681526020016100c8565b6004546040519081526020016100c8565b6100e461018736600461115d565b610941565b6101b96040518060600160405280600081526020016060815260200160006001600160a01b031681525090565b600082815260026020819052604090912001546001600160a01b03166102265760405162461bcd60e51b815260206004820152601a60248201527f4170706c69636174696f6e20646f6573206e6f7420657869737400000000000060448201526064015b60405180910390fd5b600260008381526020019081526020016000206040518060600160405290816000820154815260200160018201805461025e906111a4565b80601f016020809104026020016040519081016040528092919081815260200182805461028a906111a4565b80156102d75780601f106102ac576101008083540402835291602001916102d7565b820191906000526020600020905b8154815290600101906020018083116102ba57829003601f168201915b5050509183525050600291909101546001600160a01b031660209091015292915050565b610303610b4f565b610310335b600036610b92565b6020808201516001600160a01b031660009081526003909152604090205460ff16156103a45760405162461bcd60e51b815260206004820152602c60248201527f4164647265737320616c7265616479207573656420666f7220616e6f7468657260448201527f206170706c69636174696f6e0000000000000000000000000000000000000000606482015260840161021d565b6004805490819060006103b6836111de565b90915550506040805160608101825282815283516020808301918252858101516001600160a01b031683850152600085815260029091529290922081518155915190918291600182019061040a9082611251565b506040918201516002918201805473ffffffffffffffffffffffffffffffffffffffff19166001600160a01b039283161790558383015116600090815260036020908152838220805460ff191660011790558582529190915281902090517f6aa6784e182c2b55186dd7a4a54b2b311415146b5e10241d3015c6f4f2f317709161049691859190611310565b60405180910390a150506104a960018055565b50565b606060008267ffffffffffffffff8111156104c9576104c9610f3c565b60405190808252806020026020018201604052801561052757816020015b6105146040518060600160405280600081526020016060815260200160006001600160a01b031681525090565b8152602001906001900390816104e75790505b5090506000845b848210801561053e575060045481105b1561067357600081815260026020819052604090912001546001600160a01b03161561066157600260008281526020019081526020016000206040518060600160405290816000820154815260200160018201805461059c906111a4565b80601f01602080910402602001604051908101604052809291908181526020018280546105c8906111a4565b80156106155780601f106105ea57610100808354040283529160200191610615565b820191906000526020600020905b8154815290600101906020018083116105f857829003601f168201915b5050509183525050600291909101546001600160a01b03166020909101528351849084908110610647576106476113d4565b6020026020010181905250818061065d906111de565b9250505b8061066b816111de565b91505061052e565b60008267ffffffffffffffff81111561068e5761068e610f3c565b6040519080825280602002602001820160405280156106ec57816020015b6106d96040518060600160405280600081526020016060815260200160006001600160a01b031681525090565b8152602001906001900390816106ac5790505b50905060005b838110156107395784818151811061070c5761070c6113d4565b6020026020010151828281518110610726576107266113d4565b60209081029190910101526001016106f2565b509695505050505050565b61074c610b4f565b61075533610308565b600081815260026020819052604090912001546001600160a01b03166107bd5760405162461bcd60e51b815260206004820152601a60248201527f4170706c69636174696f6e20646f6573206e6f74206578697374000000000000604482015260640161021d565b6000818152600260208181526040808420808401546001600160a01b0316855260038352818520805460ff1916905593859052919052517f1e6f9fdb36c7f3979c3d49fa0390d328e704f0e49c2c1c48aa0c0ccc831e87569161082291849190611310565b60405180910390a16000818152600260205260408120818155906108496001830182610e46565b50600201805473ffffffffffffffffffffffffffffffffffffffff191690556104a960018055565b60005433906001600160a01b031681146108a85760405162d1953b60e31b81526001600160a01b038216600482015260240161021d565b816001600160a01b03163b6000036108f7576040517fc2f31e5e0000000000000000000000000000000000000000000000000000000081526001600160a01b038316600482015260240161021d565b61090082610cab565b5050565b60008054600160a01b900460ff1661091c5750600090565b507f8fb360370000000000000000000000000000000000000000000000000000000090565b610949610b4f565b61095233610308565b600082815260026020819052604090912001546001600160a01b03166109ba5760405162461bcd60e51b815260206004820152601a60248201527f4170706c69636174696f6e20646f6573206e6f74206578697374000000000000604482015260640161021d565b6020808201516001600160a01b031660009081526003909152604090205460ff161580610a0a5750602080820151600084815260029283905260409020909101546001600160a01b039081169116145b610a7c5760405162461bcd60e51b815260206004820152602360248201527f4163636f756e74207573656420627920616e6f74686572206170706c6963617460448201527f696f6e0000000000000000000000000000000000000000000000000000000000606482015260840161021d565b6040805160608101825283815282516020808301918252848101516001600160a01b03168385015260008681526002909152929092208151815591519091906001820190610aca9082611251565b506040918201516002918201805473ffffffffffffffffffffffffffffffffffffffff19166001600160a01b03909216919091179055600084815260209190915281902090517f36856bfccc17ac92d527e8f941bbf8a8195c32e49bac06a5ab66fd1e67cf82d091610b3e91859190611310565b60405180910390a161090060018055565b600260015403610b8b576040517f3ee5aeb500000000000000000000000000000000000000000000000000000000815260040160405180910390fd5b6002600155565b600080610bc8610baa6000546001600160a01b031690565b8630610bba60046000898b6113ea565b610bc391611414565b610d0c565b9150915081610ca45763ffffffff811615610c81576000805460ff60a01b198116600160a01b179091556040517f94c7d7ee0000000000000000000000000000000000000000000000000000000081526001600160a01b03909116906394c7d7ee90610c3c9088908890889060040161144a565b600060405180830381600087803b158015610c5657600080fd5b505af1158015610c6a573d6000803e3d6000fd5b50506000805460ff60a01b1916905550610ca49050565b60405162d1953b60e31b81526001600160a01b038616600482015260240161021d565b5050505050565b6000805473ffffffffffffffffffffffffffffffffffffffff19166001600160a01b0383169081179091556040519081527f2f658b440c35314f52658ea8a740e05b284cdc84dc9ae01e891f21b8933e7cad9060200160405180910390a150565b6040516001600160a01b03848116602483015283811660448301526001600160e01b03198316606483015260009182918291829189169060840160408051601f198184030181529181526020820180517bffffffffffffffffffffffffffffffffffffffffffffffffffffffff167fb70096130000000000000000000000000000000000000000000000000000000017905251610da99190611489565b600060405180830381855afa9150503d8060008114610de4576040519150601f19603f3d011682016040523d82523d6000602084013e610de9565b606091505b50915091508115610e3b576040815110610e1b5780806020019051810190610e1191906114b5565b9094509250610e3b565b6020815110610e3b5780806020019051810190610e3891906114f5565b93505b505094509492505050565b508054610e52906111a4565b6000825580601f10610e62575050565b601f0160209004906000526020600020908101906104a991905b80821115610e905760008155600101610e7c565b5090565b600060208284031215610ea657600080fd5b5035919050565b60005b83811015610ec8578181015183820152602001610eb0565b50506000910152565b8051825260006020820151606060208501528051806060860152610efc816080870160208501610ead565b6040938401516001600160a01b0316938501939093525050601f01601f19160160800190565b602081526000610f356020830184610ed1565b9392505050565b634e487b7160e01b600052604160045260246000fd5b6040805190810167ffffffffffffffff81118282101715610f7557610f75610f3c565b60405290565b604051601f8201601f1916810167ffffffffffffffff81118282101715610fa457610fa4610f3c565b604052919050565b80356001600160a01b0381168114610fc357600080fd5b919050565b600060408284031215610fda57600080fd5b610fe2610f52565b9050813567ffffffffffffffff811115610ffb57600080fd5b8201601f8101841361100c57600080fd5b803567ffffffffffffffff81111561102657611026610f3c565b611039601f8201601f1916602001610f7b565b81815285602083850101111561104e57600080fd5b8160208401602083013760006020838301015280845250505061107360208301610fac565b602082015292915050565b60006020828403121561109057600080fd5b813567ffffffffffffffff8111156110a757600080fd5b6110b384828501610fc8565b949350505050565b600080604083850312156110ce57600080fd5b50508035926020909101359150565b6000602082016020835280845180835260408501915060408160051b86010192506020860160005b8281101561113657603f19878603018452611121858351610ed1565b94506020938401939190910190600101611105565b50929695505050505050565b60006020828403121561115457600080fd5b610f3582610fac565b6000806040838503121561117057600080fd5b82359150602083013567ffffffffffffffff81111561118e57600080fd5b61119a85828601610fc8565b9150509250929050565b600181811c908216806111b857607f821691505b6020821081036111d857634e487b7160e01b600052602260045260246000fd5b50919050565b6000600182016111fe57634e487b7160e01b600052601160045260246000fd5b5060010190565b601f82111561124c57806000526020600020601f840160051c8101602085101561122c5750805b601f840160051c820191505b81811015610ca45760008155600101611238565b505050565b815167ffffffffffffffff81111561126b5761126b610f3c565b61127f8161127984546111a4565b84611205565b6020601f8211600181146112b3576000831561129b5750848201515b600019600385901b1c1916600184901b178455610ca4565b600084815260208120601f198516915b828110156112e357878501518255602094850194600190920191016112c3565b50848210156113015786840151600019600387901b60f8161c191681555b50505050600190811b01905550565b82815260406020820152815460408201526000600183016060808401526000815461133a816111a4565b8060a087015260018216600081146113595760018114611375576113a9565b60ff19831660c088015260c082151560051b88010193506113a9565b84600052602060002060005b838110156113a057815489820160c00152600190910190602001611381565b880160c0019450505b50505060028501546001600160a01b03166001600160a01b0381166080860152915095945050505050565b634e487b7160e01b600052603260045260246000fd5b600080858511156113fa57600080fd5b8386111561140757600080fd5b5050820193919092039150565b80356001600160e01b03198116906004841015611443576001600160e01b0319808560040360031b1b82161691505b5092915050565b6001600160a01b038416815260406020820152816040820152818360608301376000818301606090810191909152601f909201601f1916010192915050565b6000825161149b818460208701610ead565b9190910192915050565b80518015158114610fc357600080fd5b600080604083850312156114c857600080fd5b6114d1836114a5565b9150602083015163ffffffff811681146114ea57600080fd5b809150509250929050565b60006020828403121561150757600080fd5b610f35826114a556fea26469706673582212203b7e79da061a8b5e30ac550ce6a14de19dc3dcff8dcfe42e248e717f21718b1564736f6c634300081a0033",
  "linkReferences": {},
  "deployedLinkReferences": {}
}