{
  "_format": "hh-sol-artifact-1",
  "contractName": "OIDAccessManager",
  "sourceName": "contracts/OIDAccessManager.sol",
  "abi": [
    {
      "inputs": [
        {
          "internalType": "bytes32",
          "name": "operationId",
          "type": "bytes32"
        }
      ],
      "name": "AccessManagerAlreadyScheduled",
      "type": "error"
    },
    {
      "inputs": [],
      "name": "AccessManagerBadConfirmation",
      "type": "error"
    },
    {
      "inputs": [
        {
          "internalType": "bytes32",
          "name": "operationId",
          "type": "bytes32"
        }
      ],
      "name": "AccessManagerExpired",
      "type": "error"
    },
    {
      "inputs": [
        {
          "internalType": "address",
          "name": "initialAdmin",
          "type": "address"
        }
      ],
      "name": "AccessManagerInvalidInitialAdmin",
      "type": "error"
    },
    {
      "inputs": [
        {
          "internalType": "uint64",
          "name": "roleId",
          "type": "uint64"
        }
      ],
      "name": "AccessManagerLockedRole",
      "type": "error"
    },
    {
      "inputs": [
        {
          "internalType": "bytes32",
          "name": "operationId",
          "type": "bytes32"
        }
      ],
      "name": "AccessManagerNotReady",
      "type": "error"
    },
    {
      "inputs": [
        {
          "internalType": "bytes32",
          "name": "operationId",
          "type": "bytes32"
        }
      ],
      "name": "AccessManagerNotScheduled",
      "type": "error"
    },
    {
      "inputs": [
        {
          "internalType": "address",
          "name": "msgsender",
          "type": "address"
        },
        {
          "internalType": "uint64",
          "name": "roleId",
          "type": "uint64"
        }
      ],
      "name": "AccessManagerUnauthorizedAccount",
      "type": "error"
    },
    {
      "inputs": [
        {
          "internalType": "address",
          "name": "caller",
          "type": "address"
        },
        {
          "internalType": "address",
          "name": "target",
          "type": "address"
        },
        {
          "internalType": "bytes4",
          "name": "selector",
          "type": "bytes4"
        }
      ],
      "name": "AccessManagerUnauthorizedCall",
      "type": "error"
    },
    {
      "inputs": [
        {
          "internalType": "address",
          "name": "msgsender",
          "type": "address"
        },
        {
          "internalType": "address",
          "name": "caller",
          "type": "address"
        },
        {
          "internalType": "address",
          "name": "target",
          "type": "address"
        },
        {
          "internalType": "bytes4",
          "name": "selector",
          "type": "bytes4"
        }
      ],
      "name": "AccessManagerUnauthorizedCancel",
      "type": "error"
    },
    {
      "inputs": [
        {
          "internalType": "address",
          "name": "target",
          "type": "address"
        }
      ],
      "name": "AccessManagerUnauthorizedConsume",
      "type": "error"
    },
    {
      "inputs": [
        {
          "internalType": "address",
          "name": "target",
          "type": "address"
        }
      ],
      "name": "AddressEmptyCode",
      "type": "error"
    },
    {
      "inputs": [],
      "name": "FailedCall",
      "type": "error"
    },
    {
      "inputs": [
        {
          "internalType": "uint256",
          "name": "balance",
          "type": "uint256"
        },
        {
          "internalType": "uint256",
          "name": "needed",
          "type": "uint256"
        }
      ],
      "name": "InsufficientBalance",
      "type": "error"
    },
    {
      "inputs": [],
      "name": "InvalidInitialization",
      "type": "error"
    },
    {
      "inputs": [],
      "name": "NotInitializing",
      "type": "error"
    },
    {
      "inputs": [
        {
          "internalType": "uint8",
          "name": "bits",
          "type": "uint8"
        },
        {
          "internalType": "uint256",
          "name": "value",
          "type": "uint256"
        }
      ],
      "name": "SafeCastOverflowedUintDowncast",
      "type": "error"
    },
    {
      "anonymous": false,
      "inputs": [
        {
          "indexed": false,
          "internalType": "uint64",
          "name": "version",
          "type": "uint64"
        }
      ],
      "name": "Initialized",
      "type": "event"
    },
    {
      "anonymous": false,
      "inputs": [
        {
          "indexed": true,
          "internalType": "bytes32",
          "name": "operationId",
          "type": "bytes32"
        },
        {
          "indexed": true,
          "internalType": "uint32",
          "name": "nonce",
          "type": "uint32"
        }
      ],
      "name": "OperationCanceled",
      "type": "event"
    },
    {
      "anonymous": false,
      "inputs": [
        {
          "indexed": true,
          "internalType": "bytes32",
          "name": "operationId",
          "type": "bytes32"
        },
        {
          "indexed": true,
          "internalType": "uint32",
          "name": "nonce",
          "type": "uint32"
        }
      ],
      "name": "OperationExecuted",
      "type": "event"
    },
    {
      "anonymous": false,
      "inputs": [
        {
          "indexed": true,
          "internalType": "bytes32",
          "name": "operationId",
          "type": "bytes32"
        },
        {
          "indexed": true,
          "internalType": "uint32",
          "name": "nonce",
          "type": "uint32"
        },
        {
          "indexed": false,
          "internalType": "uint48",
          "name": "schedule",
          "type": "uint48"
        },
        {
          "indexed": false,
          "internalType": "address",
          "name": "caller",
          "type": "address"
        },
        {
          "indexed": false,
          "internalType": "address",
          "name": "target",
          "type": "address"
        },
        {
          "indexed": false,
          "internalType": "bytes",
          "name": "data",
          "type": "bytes"
        }
      ],
      "name": "OperationScheduled",
      "type": "event"
    },
    {
      "anonymous": false,
      "inputs": [
        {
          "indexed": true,
          "internalType": "uint64",
          "name": "roleId",
          "type": "uint64"
        },
        {
          "indexed": true,
          "internalType": "uint64",
          "name": "admin",
          "type": "uint64"
        }
      ],
      "name": "RoleAdminChanged",
      "type": "event"
    },
    {
      "anonymous": false,
      "inputs": [
        {
          "indexed": true,
          "internalType": "uint64",
          "name": "roleId",
          "type": "uint64"
        },
        {
          "indexed": false,
          "internalType": "uint32",
          "name": "delay",
          "type": "uint32"
        },
        {
          "indexed": false,
          "internalType": "uint48",
          "name": "since",
          "type": "uint48"
        }
      ],
      "name": "RoleGrantDelayChanged",
      "type": "event"
    },
    {
      "anonymous": false,
      "inputs": [
        {
          "indexed": true,
          "internalType": "uint64",
          "name": "roleId",
          "type": "uint64"
        },
        {
          "indexed": true,
          "internalType": "address",
          "name": "account",
          "type": "address"
        },
        {
          "indexed": false,
          "internalType": "uint32",
          "name": "delay",
          "type": "uint32"
        },
        {
          "indexed": false,
          "internalType": "uint48",
          "name": "since",
          "type": "uint48"
        },
        {
          "indexed": false,
          "internalType": "bool",
          "name": "newMember",
          "type": "bool"
        }
      ],
      "name": "RoleGranted",
      "type": "event"
    },
    {
      "anonymous": false,
      "inputs": [
        {
          "indexed": true,
          "internalType": "uint64",
          "name": "roleId",
          "type": "uint64"
        },
        {
          "indexed": true,
          "internalType": "uint64",
          "name": "guardian",
          "type": "uint64"
        }
      ],
      "name": "RoleGuardianChanged",
      "type": "event"
    },
    {
      "anonymous": false,
      "inputs": [
        {
          "indexed": true,
          "internalType": "uint64",
          "name": "roleId",
          "type": "uint64"
        },
        {
          "indexed": false,
          "internalType": "string",
          "name": "label",
          "type": "string"
        }
      ],
      "name": "RoleLabel",
      "type": "event"
    },
    {
      "anonymous": false,
      "inputs": [
        {
          "indexed": true,
          "internalType": "uint64",
          "name": "roleId",
          "type": "uint64"
        },
        {
          "indexed": true,
          "internalType": "address",
          "name": "account",
          "type": "address"
        }
      ],
      "name": "RoleRevoked",
      "type": "event"
    },
    {
      "anonymous": false,
      "inputs": [
        {
          "indexed": true,
          "internalType": "address",
          "name": "target",
          "type": "address"
        },
        {
          "indexed": false,
          "internalType": "uint32",
          "name": "delay",
          "type": "uint32"
        },
        {
          "indexed": false,
          "internalType": "uint48",
          "name": "since",
          "type": "uint48"
        }
      ],
      "name": "TargetAdminDelayUpdated",
      "type": "event"
    },
    {
      "anonymous": false,
      "inputs": [
        {
          "indexed": true,
          "internalType": "address",
          "name": "target",
          "type": "address"
        },
        {
          "indexed": false,
          "internalType": "bool",
          "name": "closed",
          "type": "bool"
        }
      ],
      "name": "TargetClosed",
      "type": "event"
    },
    {
      "anonymous": false,
      "inputs": [
        {
          "indexed": true,
          "internalType": "address",
          "name": "target",
          "type": "address"
        },
        {
          "indexed": false,
          "internalType": "bytes4",
          "name": "selector",
          "type": "bytes4"
        },
        {
          "indexed": true,
          "internalType": "uint64",
          "name": "roleId",
          "type": "uint64"
        }
      ],
      "name": "TargetFunctionRoleUpdated",
      "type": "event"
    },
    {
      "inputs": [],
      "name": "ADMIN_ROLE",
      "outputs": [
        {
          "internalType": "uint64",
          "name": "",
          "type": "uint64"
        }
      ],
      "stateMutability": "view",
      "type": "function"
    },
    {
      "inputs": [],
      "name": "APPLICATION_MANAGER_ROLE",
      "outputs": [
        {
          "internalType": "uint64",
          "name": "",
          "type": "uint64"
        }
      ],
      "stateMutability": "view",
      "type": "function"
    },
    {
      "inputs": [],
      "name": "ATTESTATION_MANAGER_ROLE",
      "outputs": [
        {
          "internalType": "uint64",
          "name": "",
          "type": "uint64"
        }
      ],
      "stateMutability": "view",
      "type": "function"
    },
    {
      "inputs": [],
      "name": "PERMISSION_MANAGER_ROLE",
      "outputs": [
        {
          "internalType": "uint64",
          "name": "",
          "type": "uint64"
        }
      ],
      "stateMutability": "view",
      "type": "function"
    },
    {
      "inputs": [],
      "name": "PUBLIC_ROLE",
      "outputs": [
        {
          "internalType": "uint64",
          "name": "",
          "type": "uint64"
        }
      ],
      "stateMutability": "view",
      "type": "function"
    },
    {
      "inputs": [
        {
          "internalType": "address",
          "name": "caller",
          "type": "address"
        },
        {
          "internalType": "address",
          "name": "target",
          "type": "address"
        },
        {
          "internalType": "bytes4",
          "name": "selector",
          "type": "bytes4"
        }
      ],
      "name": "canCall",
      "outputs": [
        {
          "internalType": "bool",
          "name": "immediate",
          "type": "bool"
        },
        {
          "internalType": "uint32",
          "name": "delay",
          "type": "uint32"
        }
      ],
      "stateMutability": "view",
      "type": "function"
    },
    {
      "inputs": [
        {
          "internalType": "address",
          "name": "caller",
          "type": "address"
        },
        {
          "internalType": "address",
          "name": "target",
          "type": "address"
        },
        {
          "internalType": "bytes",
          "name": "data",
          "type": "bytes"
        }
      ],
      "name": "cancel",
      "outputs": [
        {
          "internalType": "uint32",
          "name": "",
          "type": "uint32"
        }
      ],
      "stateMutability": "nonpayable",
      "type": "function"
    },
    {
      "inputs": [
        {
          "internalType": "address",
          "name": "caller",
          "type": "address"
        },
        {
          "internalType": "bytes",
          "name": "data",
          "type": "bytes"
        }
      ],
      "name": "consumeScheduledOp",
      "outputs": [],
      "stateMutability": "nonpayable",
      "type": "function"
    },
    {
      "inputs": [
        {
          "internalType": "address",
          "name": "target",
          "type": "address"
        },
        {
          "internalType": "bytes",
          "name": "data",
          "type": "bytes"
        }
      ],
      "name": "execute",
      "outputs": [
        {
          "internalType": "uint32",
          "name": "",
          "type": "uint32"
        }
      ],
      "stateMutability": "payable",
      "type": "function"
    },
    {
      "inputs": [],
      "name": "expiration",
      "outputs": [
        {
          "internalType": "uint32",
          "name": "",
          "type": "uint32"
        }
      ],
      "stateMutability": "view",
      "type": "function"
    },
    {
      "inputs": [
        {
          "internalType": "uint64",
          "name": "roleId",
          "type": "uint64"
        },
        {
          "internalType": "address",
          "name": "account",
          "type": "address"
        }
      ],
      "name": "getAccess",
      "outputs": [
        {
          "internalType": "uint48",
          "name": "since",
          "type": "uint48"
        },
        {
          "internalType": "uint32",
          "name": "currentDelay",
          "type": "uint32"
        },
        {
          "internalType": "uint32",
          "name": "pendingDelay",
          "type": "uint32"
        },
        {
          "internalType": "uint48",
          "name": "effect",
          "type": "uint48"
        }
      ],
      "stateMutability": "view",
      "type": "function"
    },
    {
      "inputs": [
        {
          "internalType": "bytes32",
          "name": "id",
          "type": "bytes32"
        }
      ],
      "name": "getNonce",
      "outputs": [
        {
          "internalType": "uint32",
          "name": "",
          "type": "uint32"
        }
      ],
      "stateMutability": "view",
      "type": "function"
    },
    {
      "inputs": [
        {
          "internalType": "uint64",
          "name": "roleId",
          "type": "uint64"
        }
      ],
      "name": "getRoleAdmin",
      "outputs": [
        {
          "internalType": "uint64",
          "name": "",
          "type": "uint64"
        }
      ],
      "stateMutability": "view",
      "type": "function"
    },
    {
      "inputs": [
        {
          "internalType": "uint64",
          "name": "roleId",
          "type": "uint64"
        }
      ],
      "name": "getRoleGrantDelay",
      "outputs": [
        {
          "internalType": "uint32",
          "name": "",
          "type": "uint32"
        }
      ],
      "stateMutability": "view",
      "type": "function"
    },
    {
      "inputs": [
        {
          "internalType": "uint64",
          "name": "roleId",
          "type": "uint64"
        }
      ],
      "name": "getRoleGuardian",
      "outputs": [
        {
          "internalType": "uint64",
          "name": "",
          "type": "uint64"
        }
      ],
      "stateMutability": "view",
      "type": "function"
    },
    {
      "inputs": [
        {
          "internalType": "bytes32",
          "name": "id",
          "type": "bytes32"
        }
      ],
      "name": "getSchedule",
      "outputs": [
        {
          "internalType": "uint48",
          "name": "",
          "type": "uint48"
        }
      ],
      "stateMutability": "view",
      "type": "function"
    },
    {
      "inputs": [
        {
          "internalType": "address",
          "name": "target",
          "type": "address"
        }
      ],
      "name": "getTargetAdminDelay",
      "outputs": [
        {
          "internalType": "uint32",
          "name": "",
          "type": "uint32"
        }
      ],
      "stateMutability": "view",
      "type": "function"
    },
    {
      "inputs": [
        {
          "internalType": "address",
          "name": "target",
          "type": "address"
        },
        {
          "internalType": "bytes4",
          "name": "selector",
          "type": "bytes4"
        }
      ],
      "name": "getTargetFunctionRole",
      "outputs": [
        {
          "internalType": "uint64",
          "name": "",
          "type": "uint64"
        }
      ],
      "stateMutability": "view",
      "type": "function"
    },
    {
      "inputs": [
        {
          "internalType": "uint64",
          "name": "roleId",
          "type": "uint64"
        },
        {
          "internalType": "address",
          "name": "account",
          "type": "address"
        },
        {
          "internalType": "uint32",
          "name": "executionDelay",
          "type": "uint32"
        }
      ],
      "name": "grantRole",
      "outputs": [],
      "stateMutability": "nonpayable",
      "type": "function"
    },
    {
      "inputs": [
        {
          "internalType": "uint64",
          "name": "roleId",
          "type": "uint64"
        },
        {
          "internalType": "address",
          "name": "account",
          "type": "address"
        }
      ],
      "name": "hasRole",
      "outputs": [
        {
          "internalType": "bool",
          "name": "isMember",
          "type": "bool"
        },
        {
          "internalType": "uint32",
          "name": "executionDelay",
          "type": "uint32"
        }
      ],
      "stateMutability": "view",
      "type": "function"
    },
    {
      "inputs": [
        {
          "internalType": "address",
          "name": "caller",
          "type": "address"
        },
        {
          "internalType": "address",
          "name": "target",
          "type": "address"
        },
        {
          "internalType": "bytes",
          "name": "data",
          "type": "bytes"
        }
      ],
      "name": "hashOperation",
      "outputs": [
        {
          "internalType": "bytes32",
          "name": "",
          "type": "bytes32"
        }
      ],
      "stateMutability": "view",
      "type": "function"
    },
    {
      "inputs": [],
      "name": "initialize",
      "outputs": [],
      "stateMutability": "nonpayable",
      "type": "function"
    },
    {
      "inputs": [
        {
          "internalType": "address",
          "name": "initialAdmin",
          "type": "address"
        }
      ],
      "name": "initialize",
      "outputs": [],
      "stateMutability": "nonpayable",
      "type": "function"
    },
    {
      "inputs": [
        {
          "internalType": "address",
          "name": "target",
          "type": "address"
        }
      ],
      "name": "isTargetClosed",
      "outputs": [
        {
          "internalType": "bool",
          "name": "",
          "type": "bool"
        }
      ],
      "stateMutability": "view",
      "type": "function"
    },
    {
      "inputs": [
        {
          "internalType": "uint64",
          "name": "roleId",
          "type": "uint64"
        },
        {
          "internalType": "string",
          "name": "label",
          "type": "string"
        }
      ],
      "name": "labelRole",
      "outputs": [],
      "stateMutability": "nonpayable",
      "type": "function"
    },
    {
      "inputs": [],
      "name": "minSetback",
      "outputs": [
        {
          "internalType": "uint32",
          "name": "",
          "type": "uint32"
        }
      ],
      "stateMutability": "view",
      "type": "function"
    },
    {
      "inputs": [
        {
          "internalType": "bytes[]",
          "name": "data",
          "type": "bytes[]"
        }
      ],
      "name": "multicall",
      "outputs": [
        {
          "internalType": "bytes[]",
          "name": "results",
          "type": "bytes[]"
        }
      ],
      "stateMutability": "nonpayable",
      "type": "function"
    },
    {
      "inputs": [
        {
          "internalType": "uint64",
          "name": "roleId",
          "type": "uint64"
        },
        {
          "internalType": "address",
          "name": "callerConfirmation",
          "type": "address"
        }
      ],
      "name": "renounceRole",
      "outputs": [],
      "stateMutability": "nonpayable",
      "type": "function"
    },
    {
      "inputs": [
        {
          "internalType": "uint64",
          "name": "roleId",
          "type": "uint64"
        },
        {
          "internalType": "address",
          "name": "account",
          "type": "address"
        }
      ],
      "name": "revokeRole",
      "outputs": [],
      "stateMutability": "nonpayable",
      "type": "function"
    },
    {
      "inputs": [
        {
          "internalType": "address",
          "name": "target",
          "type": "address"
        },
        {
          "internalType": "bytes",
          "name": "data",
          "type": "bytes"
        },
        {
          "internalType": "uint48",
          "name": "when",
          "type": "uint48"
        }
      ],
      "name": "schedule",
      "outputs": [
        {
          "internalType": "bytes32",
          "name": "operationId",
          "type": "bytes32"
        },
        {
          "internalType": "uint32",
          "name": "nonce",
          "type": "uint32"
        }
      ],
      "stateMutability": "nonpayable",
      "type": "function"
    },
    {
      "inputs": [
        {
          "internalType": "uint64",
          "name": "roleId",
          "type": "uint64"
        },
        {
          "internalType": "uint32",
          "name": "newDelay",
          "type": "uint32"
        }
      ],
      "name": "setGrantDelay",
      "outputs": [],
      "stateMutability": "nonpayable",
      "type": "function"
    },
    {
      "inputs": [
        {
          "internalType": "uint64",
          "name": "roleId",
          "type": "uint64"
        },
        {
          "internalType": "uint64",
          "name": "admin",
          "type": "uint64"
        }
      ],
      "name": "setRoleAdmin",
      "outputs": [],
      "stateMutability": "nonpayable",
      "type": "function"
    },
    {
      "inputs": [
        {
          "internalType": "uint64",
          "name": "roleId",
          "type": "uint64"
        },
        {
          "internalType": "uint64",
          "name": "guardian",
          "type": "uint64"
        }
      ],
      "name": "setRoleGuardian",
      "outputs": [],
      "stateMutability": "nonpayable",
      "type": "function"
    },
    {
      "inputs": [
        {
          "internalType": "address",
          "name": "target",
          "type": "address"
        },
        {
          "internalType": "uint32",
          "name": "newDelay",
          "type": "uint32"
        }
      ],
      "name": "setTargetAdminDelay",
      "outputs": [],
      "stateMutability": "nonpayable",
      "type": "function"
    },
    {
      "inputs": [
        {
          "internalType": "address",
          "name": "target",
          "type": "address"
        },
        {
          "internalType": "bool",
          "name": "closed",
          "type": "bool"
        }
      ],
      "name": "setTargetClosed",
      "outputs": [],
      "stateMutability": "nonpayable",
      "type": "function"
    },
    {
      "inputs": [
        {
          "internalType": "address",
          "name": "target",
          "type": "address"
        },
        {
          "internalType": "bytes4[]",
          "name": "selectors",
          "type": "bytes4[]"
        },
        {
          "internalType": "uint64",
          "name": "roleId",
          "type": "uint64"
        }
      ],
      "name": "setTargetFunctionRole",
      "outputs": [],
      "stateMutability": "nonpayable",
      "type": "function"
    },
    {
      "inputs": [
        {
          "internalType": "address",
          "name": "target",
          "type": "address"
        },
        {
          "internalType": "address",
          "name": "newAuthority",
          "type": "address"
        }
      ],
      "name": "updateAuthority",
      "outputs": [],
      "stateMutability": "nonpayable",
      "type": "function"
    }
  ],
  "bytecode": "0x6080604052348015600f57600080fd5b506133c88061001f6000396000f3fe60806040526004361061026a5760003560e01c806375b238fc11610153578063b7009613116100cb578063d1f856ee1161007f578063d6bb62c611610064578063d6bb62c61461080b578063f801a6981461082b578063fe0776f51461086557600080fd5b8063d1f856ee146107cb578063d22b5989146107eb57600080fd5b8063c4d66de8116100b0578063c4d66de814610780578063cc1b6c81146107a0578063cfef5e83146107b657600080fd5b8063b700961314610724578063b7d2b1621461076057600080fd5b806394c7d7ee11610122578063a64d95ce11610107578063a64d95ce146106a9578063abd9bd2a146106c9578063ac9650d8146106f757600080fd5b806394c7d7ee14610629578063a166aa891461064957600080fd5b806375b238fc146105ca57806377de1131146105df5780638129fc1c146105f4578063853551b81461060957600080fd5b806330cae187116101e65780634665096d116101b5578063529629521161019a578063529629521461052e578063530dd4561461054e5780636d5115bd146105aa57600080fd5b80634665096d146104f85780634c1da1e21461050e57600080fd5b806330cae187146104295780633adc277a146104495780633ca7c02a146104805780634136a33c1461049c57600080fd5b8063167bd3951161023d5780631cff79cd116102225780631cff79cd1461039c57806325c471a0146103af5780633078f114146103cf57600080fd5b8063167bd3951461035c57806318ff183c1461037c57600080fd5b80630125a4251461026f57806308d6122d146102a25780630b0a93ba146102c457806312be872714610327575b600080fd5b34801561027b57600080fd5b50610284600381565b60405167ffffffffffffffff90911681526020015b60405180910390f35b3480156102ae57600080fd5b506102c26102bd366004612c02565b610885565b005b3480156102d057600080fd5b506102846102df366004612c69565b67ffffffffffffffff90811660009081527f40c6c8c28789853c7efd823ab20824bbd71718a8a5915e855f6f288c9a26ad016020526040902060010154600160401b90041690565b34801561033357600080fd5b50610347610342366004612c69565b6108d8565b60405163ffffffff9091168152602001610299565b34801561036857600080fd5b506102c2610377366004612c84565b610944565b34801561038857600080fd5b506102c2610397366004612cc2565b61095a565b6103476103aa366004612d32565b6109da565b3480156103bb57600080fd5b506102c26103ca366004612d9b565b610b79565b3480156103db57600080fd5b506103ef6103ea366004612de0565b610b9b565b604051610299949392919065ffffffffffff948516815263ffffffff93841660208201529190921660408201529116606082015260800190565b34801561043557600080fd5b506102c2610444366004612dfc565b610c33565b34801561045557600080fd5b50610469610464366004612e2f565b610c45565b60405165ffffffffffff9091168152602001610299565b34801561048c57600080fd5b5061028467ffffffffffffffff81565b3480156104a857600080fd5b506103476104b7366004612e2f565b60009081527f40c6c8c28789853c7efd823ab20824bbd71718a8a5915e855f6f288c9a26ad0260205260409020546601000000000000900463ffffffff1690565b34801561050457600080fd5b5062093a80610347565b34801561051a57600080fd5b50610347610529366004612e48565b610ca9565b34801561053a57600080fd5b506102c2610549366004612dfc565b610ce6565b34801561055a57600080fd5b50610284610569366004612c69565b67ffffffffffffffff90811660009081527f40c6c8c28789853c7efd823ab20824bbd71718a8a5915e855f6f288c9a26ad0160205260409020600101541690565b3480156105b657600080fd5b506102846105c5366004612e7b565b610cf8565b3480156105d657600080fd5b50610284600081565b3480156105eb57600080fd5b50610284600181565b34801561060057600080fd5b506102c2610d44565b34801561061557600080fd5b506102c2610624366004612ea9565b610e5c565b34801561063557600080fd5b506102c2610644366004612d32565b610ef7565b34801561065557600080fd5b50610699610664366004612e48565b6001600160a01b031660009081526000805160206133738339815191526020526040902060010154600160701b900460ff1690565b6040519015158152602001610299565b3480156106b557600080fd5b506102c26106c4366004612ec7565b610fd5565b3480156106d557600080fd5b506106e96106e4366004612ef1565b610fe7565b604051908152602001610299565b34801561070357600080fd5b50610717610712366004612f56565b611020565b6040516102999190612fbc565b34801561073057600080fd5b5061074461073f36600461303c565b611108565b60408051921515835263ffffffff909116602083015201610299565b34801561076c57600080fd5b506102c261077b366004612de0565b611215565b34801561078c57600080fd5b506102c261079b366004612e48565b61122c565b3480156107ac57600080fd5b5062069780610347565b3480156107c257600080fd5b50610284600281565b3480156107d757600080fd5b506107446107e6366004612de0565b611345565b3480156107f757600080fd5b506102c2610806366004613087565b6113c3565b34801561081757600080fd5b50610347610826366004612ef1565b6113d5565b34801561083757600080fd5b5061084b6108463660046130a5565b61155f565b6040805192835263ffffffff909116602083015201610299565b34801561087157600080fd5b506102c2610880366004612de0565b61170c565b61088d61174e565b60005b828110156108d1576108c9858585848181106108ae576108ae613118565b90506020020160208101906108c3919061312e565b846117e3565b600101610890565b5050505050565b67ffffffffffffffff811660009081527f40c6c8c28789853c7efd823ab20824bbd71718a8a5915e855f6f288c9a26ad0160205260408120600101546000805160206133738339815191529061093d90600160801b90046001600160701b0316611879565b9392505050565b61094c61174e565b6109568282611898565b5050565b61096261174e565b6040517f7a9e5e4b0000000000000000000000000000000000000000000000000000000081526001600160a01b038281166004830152831690637a9e5e4b90602401600060405180830381600087803b1580156109be57600080fd5b505af11580156109d2573d6000803e3d6000fd5b505050505050565b60006000805160206133738339815191523382806109fa8389898961191a565b9150915081158015610a10575063ffffffff8116155b15610a7c578288610a21898961196d565b6040517f81c6f24b0000000000000000000000000000000000000000000000000000000081526001600160a01b0393841660048201529290911660248301526001600160e01b03191660448201526064015b60405180910390fd5b6000610a8a848a8a8a610fe7565b9050600063ffffffff8316151580610ab15750610aa682610c45565b65ffffffffffff1615155b15610ac257610abf82611985565b90505b6003860154610b178b610ad58c8c61196d565b604080516001600160a01b03939093166020808501919091526001600160e01b0319929092168382015280518084038201815260609093019052815191012090565b8760030181905550610b618b8b8b8080601f016020809104026020016040519081016040528093929190818152602001838380828437600092019190915250349250611aec915050565b50600390960195909555509293505050509392505050565b610b8161174e565b610b958383610b8f866108d8565b84611ba9565b50505050565b67ffffffffffffffff821660009081527f40c6c8c28789853c7efd823ab20824bbd71718a8a5915e855f6f288c9a26ad01602090815260408083206001600160a01b03851684529091528120805465ffffffffffff811692918291829160008051602061337383398151915291610c2490660100000000000090046001600160701b0316611e34565b979a9199509750945050505050565b610c3b61174e565b6109568282611e57565b60008181527f40c6c8c28789853c7efd823ab20824bbd71718a8a5915e855f6f288c9a26ad0260205260408120546000805160206133738339815191529065ffffffffffff16610c9481611f10565b610c9e5780610ca1565b60005b949350505050565b6001600160a01b03811660009081526000805160206133738339815191526020819052604082206001015461093d906001600160701b0316611879565b610cee61174e565b6109568282611f3f565b6001600160a01b0382166000908152600080516020613373833981519152602090815260408083206001600160e01b03198516845290915290205467ffffffffffffffff165b92915050565b7ff0c57e16840df040f15088dc2f81fe391c3923bec73e23a9662efc9c229c6a008054600160401b810460ff16159067ffffffffffffffff16600081158015610d8a5750825b905060008267ffffffffffffffff166001148015610da75750303b155b905081158015610db5575080155b15610dd35760405163f92ee8a960e01b815260040160405180910390fd5b845467ffffffffffffffff191660011785558315610e0257845468ff00000000000000001916600160401b1785555b610e0b33612015565b83156108d157845468ff000000000000000019168555604051600181527fc7f505b2f371ae2175ee4913f4499e1f2633a7b5936321eed1cdaeb6115181d29060200160405180910390a15050505050565b610e6461174e565b67ffffffffffffffff83161580610e84575067ffffffffffffffff838116145b15610eae5760405163061c6a4360e21b815267ffffffffffffffff84166004820152602401610a73565b8267ffffffffffffffff167f1256f5b5ecb89caec12db449738f2fbcd1ba5806cf38f35413f4e5c15bf6a4508383604051610eea929190613174565b60405180910390a2505050565b604080517f8fb360370000000000000000000000000000000000000000000000000000000080825291513392918391638fb36037916004808201926020929091908290030181865afa158015610f51573d6000803e3d6000fd5b505050506040513d601f19601f82011682018060405250810190610f759190613188565b6001600160e01b03191614610fc1576040517f320ff7480000000000000000000000000000000000000000000000000000000081526001600160a01b0382166004820152602401610a73565b6108d1610fd085838686610fe7565b611985565b610fdd61174e565b6109568282612029565b60008484848460405160200161100094939291906131a5565b604051602081830303815290604052805190602001209050949350505050565b6040805160008152602081019091526060908267ffffffffffffffff81111561104b5761104b613217565b60405190808252806020026020018201604052801561107e57816020015b60608152602001906001900390816110695790505b50915060005b83811015611100576110db308686848181106110a2576110a2613118565b90506020028101906110b4919061322d565b856040516020016110c793929190613274565b60405160208183030381529060405261216b565b8382815181106110ed576110ed613118565b6020908102919091010152600101611084565b505092915050565b600080611144846001600160a01b031660009081526000805160206133738339815191526020526040902060010154600160701b900460ff1690565b156111545750600090508061120d565b306001600160a01b038616036111cf57604080516001600160a01b0386166020808301919091526001600160e01b0319861682840152825180830384018152606090920190925280519101207f40c6c8c28789853c7efd823ab20824bbd71718a8a5915e855f6f288c9a26ad0354145b60009150915061120d565b60006111db8585610cf8565b90506000806111ea8389611345565b91509150816111fb57600080611205565b63ffffffff811615815b945094505050505b935093915050565b61121d61174e565b61122782826121e1565b505050565b7ff0c57e16840df040f15088dc2f81fe391c3923bec73e23a9662efc9c229c6a008054600160401b810460ff16159067ffffffffffffffff166000811580156112725750825b905060008267ffffffffffffffff16600114801561128f5750303b155b90508115801561129d575080155b156112bb5760405163f92ee8a960e01b815260040160405180910390fd5b845467ffffffffffffffff1916600117855583156112ea57845468ff00000000000000001916600160401b1785555b6112f386612015565b83156109d257845468ff000000000000000019168555604051600181527fc7f505b2f371ae2175ee4913f4499e1f2633a7b5936321eed1cdaeb6115181d29060200160405180910390a1505050505050565b60008067fffffffffffffffe1967ffffffffffffffff85160161136e57506001905060006113bc565b60008061137b8686610b9b565b5050915091508165ffffffffffff166000141580156113b1575061139d6122f5565b65ffffffffffff168265ffffffffffff1611155b935091506113bc9050565b9250929050565b6113cb61174e565b6109568282612305565b600060008051602061337383398151915233826113f2868661196d565b9050600061140289898989610fe7565b600081815260028601602052604081205491925065ffffffffffff90911690036114425760405163060a299b60e41b815260048101829052602401610a73565b826001600160a01b0316896001600160a01b0316146114f7576000611468600085611345565b509050600061148361147d6102df8c87610cf8565b86611345565b50905081158015611492575080155b156114f4576040517f3fe2751c0000000000000000000000000000000000000000000000000000000081526001600160a01b038087166004830152808d1660248301528b1660448201526001600160e01b031985166064820152608401610a73565b50505b6000818152600285016020526040808220805465ffffffffffff1916908190559051660100000000000090910463ffffffff1691829184917fbd9ac67a6e2f6463b80927326310338bcbb4bdb7936ce1365ea3e01067e7b9f791a39998505050505050505050565b600080600080516020613373833981519152338261157f828a8a8a61191a565b91505060008163ffffffff166115936122f5565b61159d919061329b565b905063ffffffff821615806115d4575060008765ffffffffffff161180156115d457508065ffffffffffff168765ffffffffffff16105b156115e557828a610a218b8b61196d565b6115ff8765ffffffffffff168265ffffffffffff166123d4565b965061160d838b8b8b610fe7565b9550611618866123e4565b83600201600087815260200190815260200160002060000160069054906101000a900463ffffffff1660010194508684600201600088815260200190815260200160002060000160006101000a81548165ffffffffffff021916908365ffffffffffff1602179055508484600201600088815260200190815260200160002060000160066101000a81548163ffffffff021916908363ffffffff1602179055508463ffffffff16867f82a2da5dee54ea8021c6545b4444620291e07ee83be6dd57edb175062715f3b489868e8e8e6040516116f79594939291906132b9565b60405180910390a35050505094509492505050565b6001600160a01b038116331461121d576040517f5f159e6300000000000000000000000000000000000000000000000000000000815260040160405180910390fd5b3360008061175d838236612479565b9150915081611227578063ffffffff166000036117d357600061178081366125c5565b506040517ff07e038f0000000000000000000000000000000000000000000000000000000081526001600160a01b038716600482015267ffffffffffffffff821660248201529092506044019050610a73565b610b95610fd08430600036610fe7565b60006000805160206133738339815191526001600160a01b0385166000818152602083815260408083206001600160e01b0319891680855290835292819020805467ffffffffffffffff191667ffffffffffffffff891690811790915590519283529394507f9ea6790c7dadfd01c9f8b9762b3682607af2c7e79e05a9f9fdf5580dde949151910160405180910390a350505050565b60008061188e836001600160701b0316611e34565b5090949350505050565b6001600160a01b0382166000818152600080516020613373833981519152602081815260409283902060010180546eff00000000000000000000000000001916600160701b8715159081029190911790915592519283529092917f90d4e7bb7e5d933792b3562e1741306f8be94837e1348dacef9b6f1df56eb1389101610eea565b600080306001600160a01b0386160361194157611938868585612479565b91509150611964565b6004831061195d57611958868661073f878761196d565b611938565b5060009050805b94509492505050565b600061197c60048284866131ed565b61093d91613304565b60008181527f40c6c8c28789853c7efd823ab20824bbd71718a8a5915e855f6f288c9a26ad0260205260408120546000805160206133738339815191529065ffffffffffff8116906601000000000000900463ffffffff16818403611a005760405163060a299b60e41b815260048101869052602401610a73565b611a086122f5565b65ffffffffffff168265ffffffffffff161115611a54576040517f18cb6b7a00000000000000000000000000000000000000000000000000000000815260048101869052602401610a73565b611a5d82611f10565b15611a97576040517f78a5d6e400000000000000000000000000000000000000000000000000000000815260048101869052602401610a73565b6000858152600284016020526040808220805465ffffffffffff191690555163ffffffff83169187917f76a2a46953689d4861a5d3f6ed883ad7e6af674a21f8e162707159fc9dde614d9190a3949350505050565b606081471015611b31576040517fcf47918100000000000000000000000000000000000000000000000000000000815247600482015260248101839052604401610a73565b600080856001600160a01b03168486604051611b4d919061333a565b60006040518083038185875af1925050503d8060008114611b8a576040519150601f19603f3d011682016040523d82523d6000602084013e611b8f565b606091505b5091509150611b9f8683836128d0565b9695505050505050565b600060008051602061337383398151915267ffffffffffffffff861667fffffffffffffffe1901611bf95760405163061c6a4360e21b815267ffffffffffffffff87166004820152602401610a73565b67ffffffffffffffff8616600090815260018201602090815260408083206001600160a01b038916845290915281205465ffffffffffff1615908115611d01578563ffffffff16611c486122f5565b611c52919061329b565b905060405180604001604052808265ffffffffffff168152602001611c808763ffffffff1663ffffffff1690565b6001600160701b0390811690915267ffffffffffffffff8a16600090815260018601602090815260408083206001600160a01b038d168452825290912083518154949092015190921666010000000000000273ffffffffffffffffffffffffffffffffffffffff1990931665ffffffffffff90911617919091179055611dc4565b67ffffffffffffffff8816600090815260018401602090815260408083206001600160a01b038b168452909152812054611d519166010000000000009091046001600160701b0316908790612945565b67ffffffffffffffff8a16600090815260018601602090815260408083206001600160a01b038d168452909152902080546001600160701b039093166601000000000000027fffffffffffffffffffffffff0000000000000000000000000000ffffffffffff9093169290921790915590505b6040805163ffffffff8716815265ffffffffffff831660208201528315158183015290516001600160a01b0389169167ffffffffffffffff8b16917ff98448b987f1428e0e230e1f3c6e2ce15b5693eaf31827fbd0b1ec4b424ae7cf9181900360600190a3509695505050505050565b6000806000611e4a84611e456122f5565b6129ef565b9250925092509193909250565b60008051602061337383398151915267ffffffffffffffff83161580611e86575067ffffffffffffffff838116145b15611eb05760405163061c6a4360e21b815267ffffffffffffffff84166004820152602401610a73565b67ffffffffffffffff838116600081815260018481016020526040808320909101805467ffffffffffffffff19169487169485179055517f1fd6dd7631312dfac2205b52913f99de03b4d7e381d5d27d3dbfe0713e6e63409190a3505050565b6000611f1a6122f5565b65ffffffffffff16611f2f62093a808461329b565b65ffffffffffff16111592915050565b60008051602061337383398151915267ffffffffffffffff83161580611f6e575067ffffffffffffffff838116145b15611f985760405163061c6a4360e21b815267ffffffffffffffff84166004820152602401610a73565b67ffffffffffffffff83811660008181526001848101602052604080832090910180547fffffffffffffffffffffffffffffffff0000000000000000ffffffffffffffff16600160401b958816958602179055517f7a8059630b897b5de4c08ade69f8b90c3ead1f8596d62d10b6c4d14a0afb4ae29190a3505050565b61201d612a3c565b61202681612aa0565b50565b60008051602061337383398151915267ffffffffffffffff831667fffffffffffffffe19016120775760405163061c6a4360e21b815267ffffffffffffffff84166004820152602401610a73565b67ffffffffffffffff8316600090815260018281016020526040822001546120b390600160801b90046001600160701b03168462069780612945565b67ffffffffffffffff8616600081815260018087016020526040918290200180546001600160701b03909516600160801b027fffff0000000000000000000000000000ffffffffffffffffffffffffffffffff9095169490941790935591519092507ffeb69018ee8b8fd50ea86348f1267d07673379f72cffdeccec63853ee8ce8b489061215d908690859063ffffffff92909216825265ffffffffffff16602082015260400190565b60405180910390a250505050565b6060600080846001600160a01b031684604051612188919061333a565b600060405180830381855af49150503d80600081146121c3576040519150601f19603f3d011682016040523d82523d6000602084013e6121c8565b606091505b50915091506121d88583836128d0565b95945050505050565b600060008051602061337383398151915267ffffffffffffffff841667fffffffffffffffe19016122315760405163061c6a4360e21b815267ffffffffffffffff85166004820152602401610a73565b67ffffffffffffffff8416600090815260018201602090815260408083206001600160a01b038716845290915281205465ffffffffffff169003612279576000915050610d3e565b67ffffffffffffffff8416600081815260018301602090815260408083206001600160a01b0388168085529252808320805473ffffffffffffffffffffffffffffffffffffffff19169055519092917ff229baa593af28c41b1d16b748cd7688f0c83aaf92d4be41c44005defe84c16691a35060019392505050565b600061230042612af9565b905090565b6001600160a01b03821660009081526000805160206133738339815191526020819052604082206001015490919061234a906001600160701b03168462069780612945565b6001600160a01b0386166000818152602086815260409182902060010180546dffffffffffffffffffffffffffff19166001600160701b039690961695909517909455805163ffffffff8816815265ffffffffffff841694810194909452919350917fa56b76017453f399ec2327ba00375dbfb1fd070ff854341ad6191e6a2e2de19c910161215d565b600082821882841102821861093d565b60008181527f40c6c8c28789853c7efd823ab20824bbd71718a8a5915e855f6f288c9a26ad0260205260409020546000805160206133738339815191529065ffffffffffff16801580159061243f575061243d81611f10565b155b15611227576040517f813e945900000000000000000000000000000000000000000000000000000000815260048101849052602401610a73565b60008060048310156124905750600090508061120d565b306001600160a01b03861603612513576111c4306124ae868661196d565b604080516001600160a01b03939093166020808501919091526001600160e01b031992909216838201528051808403820181526060909301905281519101207f40c6c8c28789853c7efd823ab20824bbd71718a8a5915e855f6f288c9a26ad03541490565b600080600061252287876125c5565b9250925092508215801561255c57503060009081526000805160206133738339815191526020526040902060010154600160701b900460ff165b15612570576000809450945050505061120d565b60008061257d848b611345565b91509150816125975760008096509650505050505061120d565b6125ad8363ffffffff168263ffffffff166123d4565b63ffffffff8116159b909a5098505050505050505050565b6000808060048410156125e0575060009150819050806128c9565b60006125ec868661196d565b90506001600160e01b031981167f853551b800000000000000000000000000000000000000000000000000000000148061264f57506001600160e01b031981167f30cae18700000000000000000000000000000000000000000000000000000000145b8061268357506001600160e01b031981167f5296295200000000000000000000000000000000000000000000000000000000145b806126b757506001600160e01b031981167fa64d95ce00000000000000000000000000000000000000000000000000000000145b806126eb57506001600160e01b031981167fd22b598900000000000000000000000000000000000000000000000000000000145b15612701576001600080935093509350506128c9565b6001600160e01b031981167f18ff183c00000000000000000000000000000000000000000000000000000000148061276257506001600160e01b031981167f167bd39500000000000000000000000000000000000000000000000000000000145b8061279657506001600160e01b031981167f08d6122d00000000000000000000000000000000000000000000000000000000145b156127d85760006127ab60246004888a6131ed565b8101906127b89190612e48565b905060006127c582610ca9565b600196506000955093506128c992505050565b6001600160e01b031981167f25c471a000000000000000000000000000000000000000000000000000000000148061283957506001600160e01b031981167fb7d2b16200000000000000000000000000000000000000000000000000000000145b156128b357600061284e60246004888a6131ed565b81019061285b9190612c69565b905060016128a48267ffffffffffffffff90811660009081527f40c6c8c28789853c7efd823ab20824bbd71718a8a5915e855f6f288c9a26ad0160205260409020600101541690565b600094509450945050506128c9565b60006128bf3083610cf8565b6000935093509350505b9250925092565b6060826128e5576128e082612b49565b61093d565b81511580156128fc57506001600160a01b0384163b155b1561293e576040517f9996b3150000000000000000000000000000000000000000000000000000000081526001600160a01b0385166004820152602401610a73565b508061093d565b600080600061295c866001600160701b0316611879565b905060006129998563ffffffff168763ffffffff168463ffffffff161161298457600061298e565b61298e8885613356565b63ffffffff166123d4565b90508063ffffffff166129aa6122f5565b6129b4919061329b565b925063ffffffff8616602083901b67ffffffff0000000016604085901b6dffffffffffff000000000000000016171793505050935093915050565b69ffffffffffffffffffff602083901c166001600160701b03831665ffffffffffff604085901c8116908416811115612a2a57828282612a2f565b816000805b9250925092509250925092565b7ff0c57e16840df040f15088dc2f81fe391c3923bec73e23a9662efc9c229c6a0054600160401b900460ff16612a9e576040517fd7e6bcf800000000000000000000000000000000000000000000000000000000815260040160405180910390fd5b565b612aa8612a3c565b6001600160a01b038116612aeb576040517f0813ada200000000000000000000000000000000000000000000000000000000815260006004820152602401610a73565b610956600082600080611ba9565b600065ffffffffffff821115612b45576040517f6dfcc6500000000000000000000000000000000000000000000000000000000081526030600482015260248101839052604401610a73565b5090565b805115612b595780518082602001fd5b6040517fd6bda27500000000000000000000000000000000000000000000000000000000815260040160405180910390fd5b6001600160a01b038116811461202657600080fd5b60008083601f840112612bb257600080fd5b50813567ffffffffffffffff811115612bca57600080fd5b6020830191508360208260051b85010111156113bc57600080fd5b803567ffffffffffffffff81168114612bfd57600080fd5b919050565b60008060008060608587031215612c1857600080fd5b8435612c2381612b8b565b9350602085013567ffffffffffffffff811115612c3f57600080fd5b612c4b87828801612ba0565b9094509250612c5e905060408601612be5565b905092959194509250565b600060208284031215612c7b57600080fd5b61093d82612be5565b60008060408385031215612c9757600080fd5b8235612ca281612b8b565b915060208301358015158114612cb757600080fd5b809150509250929050565b60008060408385031215612cd557600080fd5b8235612ce081612b8b565b91506020830135612cb781612b8b565b60008083601f840112612d0257600080fd5b50813567ffffffffffffffff811115612d1a57600080fd5b6020830191508360208285010111156113bc57600080fd5b600080600060408486031215612d4757600080fd5b8335612d5281612b8b565b9250602084013567ffffffffffffffff811115612d6e57600080fd5b612d7a86828701612cf0565b9497909650939450505050565b803563ffffffff81168114612bfd57600080fd5b600080600060608486031215612db057600080fd5b612db984612be5565b92506020840135612dc981612b8b565b9150612dd760408501612d87565b90509250925092565b60008060408385031215612df357600080fd5b612ce083612be5565b60008060408385031215612e0f57600080fd5b612e1883612be5565b9150612e2660208401612be5565b90509250929050565b600060208284031215612e4157600080fd5b5035919050565b600060208284031215612e5a57600080fd5b813561093d81612b8b565b6001600160e01b03198116811461202657600080fd5b60008060408385031215612e8e57600080fd5b8235612e9981612b8b565b91506020830135612cb781612e65565b600080600060408486031215612ebe57600080fd5b612d5284612be5565b60008060408385031215612eda57600080fd5b612ee383612be5565b9150612e2660208401612d87565b60008060008060608587031215612f0757600080fd5b8435612f1281612b8b565b93506020850135612f2281612b8b565b9250604085013567ffffffffffffffff811115612f3e57600080fd5b612f4a87828801612cf0565b95989497509550505050565b60008060208385031215612f6957600080fd5b823567ffffffffffffffff811115612f8057600080fd5b612f8c85828601612ba0565b90969095509350505050565b60005b83811015612fb3578181015183820152602001612f9b565b50506000910152565b6000602082016020835280845180835260408501915060408160051b86010192506020860160005b8281101561303057603f198786030184528151805180875261300d816020890160208501612f98565b601f01601f19169590950160209081019550938401939190910190600101612fe4565b50929695505050505050565b60008060006060848603121561305157600080fd5b833561305c81612b8b565b9250602084013561306c81612b8b565b9150604084013561307c81612e65565b809150509250925092565b6000806040838503121561309a57600080fd5b8235612ee381612b8b565b600080600080606085870312156130bb57600080fd5b84356130c681612b8b565b9350602085013567ffffffffffffffff8111156130e257600080fd5b6130ee87828801612cf0565b909450925050604085013565ffffffffffff8116811461310d57600080fd5b939692955090935050565b634e487b7160e01b600052603260045260246000fd5b60006020828403121561314057600080fd5b813561093d81612e65565b81835281816020850137506000828201602090810191909152601f909101601f19169091010190565b602081526000610ca160208301848661314b565b60006020828403121561319a57600080fd5b815161093d81612e65565b6001600160a01b03851681526001600160a01b0384166020820152606060408201526000611b9f60608301848661314b565b634e487b7160e01b600052601160045260246000fd5b600080858511156131fd57600080fd5b8386111561320a57600080fd5b5050820193919092039150565b634e487b7160e01b600052604160045260246000fd5b6000808335601e1984360301811261324457600080fd5b83018035915067ffffffffffffffff82111561325f57600080fd5b6020019150368190038213156113bc57600080fd5b828482376000838201600081528351613291818360208801612f98565b0195945050505050565b65ffffffffffff8181168382160190811115610d3e57610d3e6131d7565b65ffffffffffff861681526001600160a01b03851660208201526001600160a01b03841660408201526080606082015260006132f960808301848661314b565b979650505050505050565b80356001600160e01b03198116906004841015613333576001600160e01b0319808560040360031b1b82161691505b5092915050565b6000825161334c818460208701612f98565b9190910192915050565b63ffffffff8281168282160390811115610d3e57610d3e6131d756fe40c6c8c28789853c7efd823ab20824bbd71718a8a5915e855f6f288c9a26ad00a264697066735822122036bfeac2edd6be5c8b28c46f05c20c4a0d69c451c3c1e650dbf4170f8224f0c964736f6c634300081a0033",
  "linkReferences": {},
  "deployedLinkReferences": {}
}