{
  "_format": "hh-sol-artifact-1",
  "contractName": "OIDPermissionManager",
  "sourceName": "contracts/OIDPermissionManager.sol",
  "abi": [
    {
      "inputs": [
        {
          "internalType": "address",
          "name": "initialAuthority",
          "type": "address"
        },
        {
          "internalType": "contract IEAS",
          "name": "initialEAS",
          "type": "address"
        }
      ],
      "stateMutability": "nonpayable",
      "type": "constructor"
    },
    {
      "inputs": [
        {
          "internalType": "address",
          "name": "authority",
          "type": "address"
        }
      ],
      "name": "AccessManagedInvalidAuthority",
      "type": "error"
    },
    {
      "inputs": [
        {
          "internalType": "address",
          "name": "caller",
          "type": "address"
        },
        {
          "internalType": "uint32",
          "name": "delay",
          "type": "uint32"
        }
      ],
      "name": "AccessManagedRequiredDelay",
      "type": "error"
    },
    {
      "inputs": [
        {
          "internalType": "address",
          "name": "caller",
          "type": "address"
        }
      ],
      "name": "AccessManagedUnauthorized",
      "type": "error"
    },
    {
      "inputs": [
        {
          "internalType": "bytes32",
          "name": "attestation_uid",
          "type": "bytes32"
        }
      ],
      "name": "AttestationNotFound",
      "type": "error"
    },
    {
      "inputs": [
        {
          "internalType": "bytes32",
          "name": "attestation_uid",
          "type": "bytes32"
        }
      ],
      "name": "AttestationRevoked",
      "type": "error"
    },
    {
      "inputs": [
        {
          "internalType": "address",
          "name": "caller",
          "type": "address"
        }
      ],
      "name": "UnauthorizedAccess",
      "type": "error"
    },
    {
      "anonymous": false,
      "inputs": [
        {
          "indexed": false,
          "internalType": "address",
          "name": "authority",
          "type": "address"
        }
      ],
      "name": "AuthorityUpdated",
      "type": "event"
    },
    {
      "anonymous": false,
      "inputs": [
        {
          "indexed": false,
          "internalType": "bytes32",
          "name": "key",
          "type": "bytes32"
        },
        {
          "indexed": false,
          "internalType": "address",
          "name": "account",
          "type": "address"
        },
        {
          "indexed": false,
          "internalType": "bool",
          "name": "granted",
          "type": "bool"
        }
      ],
      "name": "PermissionUpdated",
      "type": "event"
    },
    {
      "inputs": [],
      "name": "authority",
      "outputs": [
        {
          "internalType": "address",
          "name": "",
          "type": "address"
        }
      ],
      "stateMutability": "view",
      "type": "function"
    },
    {
      "inputs": [],
      "name": "eas",
      "outputs": [
        {
          "internalType": "contract IEAS",
          "name": "",
          "type": "address"
        }
      ],
      "stateMutability": "view",
      "type": "function"
    },
    {
      "inputs": [
        {
          "internalType": "bytes32",
          "name": "attestation_uid",
          "type": "bytes32"
        },
        {
          "internalType": "address",
          "name": "account",
          "type": "address"
        }
      ],
      "name": "grantPermission",
      "outputs": [],
      "stateMutability": "nonpayable",
      "type": "function"
    },
    {
      "inputs": [
        {
          "internalType": "bytes32",
          "name": "key",
          "type": "bytes32"
        },
        {
          "internalType": "address",
          "name": "account",
          "type": "address"
        }
      ],
      "name": "hasPermission",
      "outputs": [
        {
          "internalType": "bool",
          "name": "",
          "type": "bool"
        }
      ],
      "stateMutability": "view",
      "type": "function"
    },
    {
      "inputs": [],
      "name": "isConsumingScheduledOp",
      "outputs": [
        {
          "internalType": "bytes4",
          "name": "",
          "type": "bytes4"
        }
      ],
      "stateMutability": "view",
      "type": "function"
    },
    {
      "inputs": [
        {
          "internalType": "bytes32",
          "name": "attestation_uid",
          "type": "bytes32"
        },
        {
          "internalType": "address",
          "name": "account",
          "type": "address"
        }
      ],
      "name": "revokePermission",
      "outputs": [],
      "stateMutability": "nonpayable",
      "type": "function"
    },
    {
      "inputs": [
        {
          "internalType": "address",
          "name": "newAuthority",
          "type": "address"
        }
      ],
      "name": "setAuthority",
      "outputs": [],
      "stateMutability": "nonpayable",
      "type": "function"
    }
  ],
  "bytecode": "0x60a060405234801561001057600080fd5b50604051610bb0380380610bb083398101604081905261002f916100b8565b816100398161004c565b506001600160a01b0316608052506100f2565b600080546001600160a01b0319166001600160a01b0383169081179091556040519081527f2f658b440c35314f52658ea8a740e05b284cdc84dc9ae01e891f21b8933e7cad9060200160405180910390a150565b6001600160a01b03811681146100b557600080fd5b50565b600080604083850312156100cb57600080fd5b82516100d6816100a0565b60208401519092506100e7816100a0565b809150509250929050565b608051610a9d6101136000396000818160c101526103910152610a9d6000f3fe608060405234801561001057600080fd5b506004361061007d5760003560e01c80638fb360371161005b5780638fb36037146100f9578063a6a8f17b14610132578063bc58645614610145578063bf7e214f1461015857600080fd5b806328545c0d146100825780637a9e5e4b146100aa5780638150864d146100bf575b600080fd5b61009561009036600461076f565b610169565b60405190151581526020015b60405180910390f35b6100bd6100b836600461079f565b6101f1565b005b7f00000000000000000000000000000000000000000000000000000000000000005b6040516001600160a01b0390911681526020016100a1565b6101016102a3565b6040517fffffffff0000000000000000000000000000000000000000000000000000000090911681526020016100a1565b6100bd61014036600461076f565b6102f1565b6100bd61015336600461076f565b6102fd565b6000546001600160a01b03166100e1565b60008281526001602081815260408084206001600160a01b0386168552909152822090810154158061019d5750805460ff16155b156101ac5760009150506101eb565b60006101bb8260010154610309565b90506101d4816080015167ffffffffffffffff16151590565b156101e4576000925050506101eb565b6001925050505b92915050565b60005433906001600160a01b03168114610247576040517f068ca9d80000000000000000000000000000000000000000000000000000000081526001600160a01b03821660048201526024015b60405180910390fd5b816001600160a01b03163b600003610296576040517fc2f31e5e0000000000000000000000000000000000000000000000000000000081526001600160a01b038316600482015260240161023e565b61029f8261043e565b5050565b6000805474010000000000000000000000000000000000000000900460ff166102cc5750600090565b507f8fb360370000000000000000000000000000000000000000000000000000000090565b61029f828260006104aa565b61029f828260016104aa565b604080516101408101825260008082526020820181905281830181905260608083018290526080830182905260a0830182905260c0830182905260e08301829052610100830182905261012083015291517fa3112a64000000000000000000000000000000000000000000000000000000008152600481018490529091906001600160a01b037f0000000000000000000000000000000000000000000000000000000000000000169063a3112a6490602401600060405180830381865afa1580156103d8573d6000803e3d6000fd5b505050506040513d6000823e601f3d908101601f191682016040526104009190810190610904565b80519091506101eb576040517f01fb6dd10000000000000000000000000000000000000000000000000000000081526004810184905260240161023e565b600080547fffffffffffffffffffffffff0000000000000000000000000000000000000000166001600160a01b0383169081179091556040519081527f2f658b440c35314f52658ea8a740e05b284cdc84dc9ae01e891f21b8933e7cad9060200160405180910390a150565b60006104b584610309565b90506104ce816080015167ffffffffffffffff16151590565b15610508576040517f04bed2560000000000000000000000000000000000000000000000000000000081526004810185905260240161023e565b610511816105bb565b600061051c8261061f565b60408051808201825285151581526020808201898152600085815260018084528582206001600160a01b038c168352909352939093209151825460ff191690151517825591519101559050604080518281526001600160a01b0386166020820152841515918101919091527fa7dbb3dd7fc1f02d38df3ba26b3867fa7010e3497f7a3e33f0b1a75e794d8f359060600160405180910390a15050505050565b6105d18160c001516001600160a01b0316331490565b1580156105e357506105e1610642565b155b1561061c576040517fdccef96400000000000000000000000000000000000000000000000000000000815233600482015260240161023e565b50565b60008082610120015180602001905181019061063b91906109fe565b9392505050565b6000806106576000546001600160a01b031690565b90506000816001600160a01b031663d1f856ee836001600160a01b0316630125a4256040518163ffffffff1660e01b8152600401602060405180830381865afa1580156106a8573d6000803e3d6000fd5b505050506040513d601f19601f820116820180604052508101906106cc9190610a17565b6040517fffffffff0000000000000000000000000000000000000000000000000000000060e084901b16815267ffffffffffffffff90911660048201523360248201526044016040805180830381865afa15801561072e573d6000803e3d6000fd5b505050506040513d601f19601f820116820180604052508101906107529190610a32565b509392505050565b6001600160a01b038116811461061c57600080fd5b6000806040838503121561078257600080fd5b8235915060208301356107948161075a565b809150509250929050565b6000602082840312156107b157600080fd5b813561063b8161075a565b7f4e487b7100000000000000000000000000000000000000000000000000000000600052604160045260246000fd5b604051610140810167ffffffffffffffff8111828210171561080f5761080f6107bc565b60405290565b604051601f8201601f1916810167ffffffffffffffff8111828210171561083e5761083e6107bc565b604052919050565b805167ffffffffffffffff8116811461085e57600080fd5b919050565b805161085e8161075a565b8051801515811461085e57600080fd5b600082601f83011261088f57600080fd5b815167ffffffffffffffff8111156108a9576108a96107bc565b6108bc601f8201601f1916602001610815565b8181528460208386010111156108d157600080fd5b60005b828110156108f0576020818601810151838301820152016108d4565b506000918101602001919091529392505050565b60006020828403121561091657600080fd5b815167ffffffffffffffff81111561092d57600080fd5b8201610140818503121561094057600080fd5b6109486107eb565b815181526020808301519082015261096260408301610846565b604082015261097360608301610846565b606082015261098460808301610846565b608082015260a0828101519082015261099f60c08301610863565b60c08201526109b060e08301610863565b60e08201526109c2610100830161086e565b61010082015261012082015167ffffffffffffffff8111156109e357600080fd5b6109ef8682850161087e565b61012083015250949350505050565b600060208284031215610a1057600080fd5b5051919050565b600060208284031215610a2957600080fd5b61063b82610846565b60008060408385031215610a4557600080fd5b610a4e8361086e565b9150602083015163ffffffff8116811461079457600080fdfea2646970667358221220058148bf957c2f50326fb3479333357210091b7799b4b2de528804eff09ea27a64736f6c634300081a0033",
  "linkReferences": {},
  "deployedLinkReferences": {}
}