{
  "_format": "hh-sol-artifact-1",
  "contractName": "ApplicationManager",
  "sourceName": "contracts/ApplicationManager.sol",
  "abi": [
    {
      "inputs": [
        {
          "internalType": "address",
          "name": "initialAuthority",
          "type": "address"
        }
      ],
      "stateMutability": "nonpayable",
      "type": "constructor"
    },
    {
      "inputs": [
        {
          "internalType": "address",
          "name": "authority",
          "type": "address"
        }
      ],
      "name": "AccessManagedInvalidAuthority",
      "type": "error"
    },
    {
      "inputs": [
        {
          "internalType": "address",
          "name": "caller",
          "type": "address"
        },
        {
          "internalType": "uint32",
          "name": "delay",
          "type": "uint32"
        }
      ],
      "name": "AccessManagedRequiredDelay",
      "type": "error"
    },
    {
      "inputs": [
        {
          "internalType": "address",
          "name": "caller",
          "type": "address"
        }
      ],
      "name": "AccessManagedUnauthorized",
      "type": "error"
    },
    {
      "inputs": [],
      "name": "ReentrancyGuardReentrantCall",
      "type": "error"
    },
    {
      "anonymous": false,
      "inputs": [
        {
          "indexed": false,
          "internalType": "uint256",
          "name": "id",
          "type": "uint256"
        },
        {
          "components": [
            {
              "internalType": "string",
              "name": "name",
              "type": "string"
            },
            {
              "internalType": "address",
              "name": "account",
              "type": "address"
            }
          ],
          "indexed": false,
          "internalType": "struct IApplicationManager.Application",
          "name": "application",
          "type": "tuple"
        }
      ],
      "name": "ApplicationCreated",
      "type": "event"
    },
    {
      "anonymous": false,
      "inputs": [
        {
          "indexed": false,
          "internalType": "uint256",
          "name": "id",
          "type": "uint256"
        },
        {
          "components": [
            {
              "internalType": "string",
              "name": "name",
              "type": "string"
            },
            {
              "internalType": "address",
              "name": "account",
              "type": "address"
            }
          ],
          "indexed": false,
          "internalType": "struct IApplicationManager.Application",
          "name": "application",
          "type": "tuple"
        }
      ],
      "name": "ApplicationDeleted",
      "type": "event"
    },
    {
      "anonymous": false,
      "inputs": [
        {
          "indexed": false,
          "internalType": "uint256",
          "name": "id",
          "type": "uint256"
        },
        {
          "components": [
            {
              "internalType": "string",
              "name": "name",
              "type": "string"
            },
            {
              "internalType": "address",
              "name": "account",
              "type": "address"
            }
          ],
          "indexed": false,
          "internalType": "struct IApplicationManager.Application",
          "name": "application",
          "type": "tuple"
        }
      ],
      "name": "ApplicationUpdated",
      "type": "event"
    },
    {
      "anonymous": false,
      "inputs": [
        {
          "indexed": false,
          "internalType": "address",
          "name": "authority",
          "type": "address"
        }
      ],
      "name": "AuthorityUpdated",
      "type": "event"
    },
    {
      "inputs": [],
      "name": "authority",
      "outputs": [
        {
          "internalType": "address",
          "name": "",
          "type": "address"
        }
      ],
      "stateMutability": "view",
      "type": "function"
    },
    {
      "inputs": [
        {
          "components": [
            {
              "internalType": "string",
              "name": "name",
              "type": "string"
            },
            {
              "internalType": "address",
              "name": "account",
              "type": "address"
            }
          ],
          "internalType": "struct IApplicationManager.Application",
          "name": "newApplication",
          "type": "tuple"
        }
      ],
      "name": "createApplication",
      "outputs": [],
      "stateMutability": "nonpayable",
      "type": "function"
    },
    {
      "inputs": [
        {
          "internalType": "uint256",
          "name": "id",
          "type": "uint256"
        }
      ],
      "name": "deleteApplication",
      "outputs": [],
      "stateMutability": "nonpayable",
      "type": "function"
    },
    {
      "inputs": [
        {
          "internalType": "uint256",
          "name": "id",
          "type": "uint256"
        }
      ],
      "name": "getApplication",
      "outputs": [
        {
          "components": [
            {
              "internalType": "string",
              "name": "name",
              "type": "string"
            },
            {
              "internalType": "address",
              "name": "account",
              "type": "address"
            }
          ],
          "internalType": "struct IApplicationManager.Application",
          "name": "",
          "type": "tuple"
        }
      ],
      "stateMutability": "view",
      "type": "function"
    },
    {
      "inputs": [
        {
          "internalType": "uint256",
          "name": "start",
          "type": "uint256"
        },
        {
          "internalType": "uint256",
          "name": "limit",
          "type": "uint256"
        }
      ],
      "name": "getApplications",
      "outputs": [
        {
          "components": [
            {
              "internalType": "string",
              "name": "name",
              "type": "string"
            },
            {
              "internalType": "address",
              "name": "account",
              "type": "address"
            }
          ],
          "internalType": "struct IApplicationManager.Application[]",
          "name": "",
          "type": "tuple[]"
        }
      ],
      "stateMutability": "view",
      "type": "function"
    },
    {
      "inputs": [],
      "name": "getNextApplicationId",
      "outputs": [
        {
          "internalType": "uint256",
          "name": "",
          "type": "uint256"
        }
      ],
      "stateMutability": "view",
      "type": "function"
    },
    {
      "inputs": [],
      "name": "isConsumingScheduledOp",
      "outputs": [
        {
          "internalType": "bytes4",
          "name": "",
          "type": "bytes4"
        }
      ],
      "stateMutability": "view",
      "type": "function"
    },
    {
      "inputs": [
        {
          "internalType": "address",
          "name": "newAuthority",
          "type": "address"
        }
      ],
      "name": "setAuthority",
      "outputs": [],
      "stateMutability": "nonpayable",
      "type": "function"
    },
    {
      "inputs": [
        {
          "internalType": "uint256",
          "name": "id",
          "type": "uint256"
        },
        {
          "components": [
            {
              "internalType": "string",
              "name": "name",
              "type": "string"
            },
            {
              "internalType": "address",
              "name": "account",
              "type": "address"
            }
          ],
          "internalType": "struct IApplicationManager.Application",
          "name": "updatedApplication",
          "type": "tuple"
        }
      ],
      "name": "updateApplication",
      "outputs": [],
      "stateMutability": "nonpayable",
      "type": "function"
    }
  ],
  "bytecode": "0x6080604052348015600f57600080fd5b5060405161152f38038061152f833981016040819052602c916092565b80603481603e565b50506001805560c0565b600080546001600160a01b0319166001600160a01b0383169081179091556040519081527f2f658b440c35314f52658ea8a740e05b284cdc84dc9ae01e891f21b8933e7cad9060200160405180910390a150565b60006020828403121560a357600080fd5b81516001600160a01b038116811460b957600080fd5b9392505050565b611460806100cf6000396000f3fe608060405234801561001057600080fd5b50600436106100a35760003560e01c80637a9e5e4b11610076578063bf7e214f1161005b578063bf7e214f1461014d578063cec9d7da14610168578063ecdfe9b41461017957600080fd5b80637a9e5e4b146101195780638fb360371461012c57600080fd5b80631f2f4bfd146100a857806336112a14146100d157806341702a16146100e65780637823c1e314610106575b600080fd5b6100bb6100b6366004610dc6565b61018c565b6040516100c89190610e4a565b60405180910390f35b6100e46100df366004610fa6565b6102d1565b005b6100f96100f4366004610fe3565b610454565b6040516100c89190611005565b6100e4610114366004610dc6565b6106aa565b6100e461012736600461106a565b6107d1565b610134610864565b6040516001600160e01b031990911681526020016100c8565b6000546040516001600160a01b0390911681526020016100c8565b6004546040519081526020016100c8565b6100e4610187366004611085565b6108a1565b6040805180820190915260608152600060208201526000828152600260205260409020600101546001600160a01b031661020d5760405162461bcd60e51b815260206004820152601a60248201527f4170706c69636174696f6e20646f6573206e6f7420657869737400000000000060448201526064015b60405180910390fd5b600082815260026020526040908190208151808301909252805482908290610234906110cc565b80601f0160208091040260200160405190810160405280929190818152602001828054610260906110cc565b80156102ad5780601f10610282576101008083540402835291602001916102ad565b820191906000526020600020905b81548152906001019060200180831161029057829003601f168201915b5050509183525050600191909101546001600160a01b031660209091015292915050565b6102d9610a81565b6102e6335b600036610ac4565b6020808201516001600160a01b031660009081526003909152604090205460ff161561037a5760405162461bcd60e51b815260206004820152602c60248201527f4164647265737320616c7265616479207573656420666f7220616e6f7468657260448201527f206170706c69636174696f6e00000000000000000000000000000000000000006064820152608401610204565b60045460009081526002602052604090208151829190819061039c9082611152565b506020918201516001918201805473ffffffffffffffffffffffffffffffffffffffff19166001600160a01b0392831617905583830151166000908152600383526040808220805460ff1916909317909255600454808252600290935281902090517fc359e19577116e3fc999c169f12688e8c3569477e68d1d3625b322620e74afa29261042b929091611211565b60405180910390a160048054906000610443836112c7565b919050555061045160018055565b50565b606060008267ffffffffffffffff81111561047157610471610e64565b6040519080825280602002602001820160405280156104b757816020015b60408051808201909152606081526000602082015281526020019060019003908161048f5790505b5090506000845b84821080156104ce575060045481105b156105f1576000818152600260205260409020600101546001600160a01b0316156105df5760008181526002602052604090819020815180830190925280548290829061051a906110cc565b80601f0160208091040260200160405190810160405280929190818152602001828054610546906110cc565b80156105935780601f1061056857610100808354040283529160200191610593565b820191906000526020600020905b81548152906001019060200180831161057657829003601f168201915b5050509183525050600191909101546001600160a01b031660209091015283518490849081106105c5576105c56112ee565b602002602001018190525081806105db906112c7565b9250505b806105e9816112c7565b9150506104be565b60008267ffffffffffffffff81111561060c5761060c610e64565b60405190808252806020026020018201604052801561065257816020015b60408051808201909152606081526000602082015281526020019060019003908161062a5790505b50905060005b8381101561069f57848181518110610672576106726112ee565b602002602001015182828151811061068c5761068c6112ee565b6020908102919091010152600101610658565b509695505050505050565b6106b2610a81565b6106bb336102de565b6000818152600260205260409020600101546001600160a01b03166107225760405162461bcd60e51b815260206004820152601a60248201527f4170706c69636174696f6e20646f6573206e6f742065786973740000000000006044820152606401610204565b600081815260026020818152604080842060018101546001600160a01b0316855260038352818520805460ff1916905593859052919052517f3211735cde349f2a8dd1246dd2853dadb2ae6239b23257e5c6114314930105929161078891849190611211565b60405180910390a16000818152600260205260408120906107a98282610d78565b50600101805473ffffffffffffffffffffffffffffffffffffffff1916905561045160018055565b60005433906001600160a01b031681146108085760405162d1953b60e31b81526001600160a01b0382166004820152602401610204565b816001600160a01b03163b600003610857576040517fc2f31e5e0000000000000000000000000000000000000000000000000000000081526001600160a01b0383166004820152602401610204565b61086082610bdd565b5050565b60008054600160a01b900460ff1661087c5750600090565b507f8fb360370000000000000000000000000000000000000000000000000000000090565b6108a9610a81565b6108b2336102de565b6000828152600260205260409020600101546001600160a01b03166109195760405162461bcd60e51b815260206004820152601a60248201527f4170706c69636174696f6e20646f6573206e6f742065786973740000000000006044820152606401610204565b6020808201516001600160a01b031660009081526003909152604090205460ff1615806109695750602080820151600084815260029092526040909120600101546001600160a01b039081169116145b6109db5760405162461bcd60e51b815260206004820152602360248201527f4163636f756e74207573656420627920616e6f74686572206170706c6963617460448201527f696f6e00000000000000000000000000000000000000000000000000000000006064820152608401610204565b6000828152600260205260409020815182919081906109fa9082611152565b50602091820151600191909101805473ffffffffffffffffffffffffffffffffffffffff19166001600160a01b039092169190911790556000838152600290915260409081902090517e4e95f220a896913974681943a6650ca639b4c9c056108c78fecb2c44d5262391610a7091859190611211565b60405180910390a161086060018055565b600260015403610abd576040517f3ee5aeb500000000000000000000000000000000000000000000000000000000815260040160405180910390fd5b6002600155565b600080610afa610adc6000546001600160a01b031690565b8630610aec60046000898b611304565b610af59161132e565b610c3e565b9150915081610bd65763ffffffff811615610bb3576000805460ff60a01b198116600160a01b179091556040517f94c7d7ee0000000000000000000000000000000000000000000000000000000081526001600160a01b03909116906394c7d7ee90610b6e90889088908890600401611364565b600060405180830381600087803b158015610b8857600080fd5b505af1158015610b9c573d6000803e3d6000fd5b50506000805460ff60a01b1916905550610bd69050565b60405162d1953b60e31b81526001600160a01b0386166004820152602401610204565b5050505050565b6000805473ffffffffffffffffffffffffffffffffffffffff19166001600160a01b0383169081179091556040519081527f2f658b440c35314f52658ea8a740e05b284cdc84dc9ae01e891f21b8933e7cad9060200160405180910390a150565b6040516001600160a01b03848116602483015283811660448301526001600160e01b03198316606483015260009182918291829189169060840160408051601f198184030181529181526020820180517bffffffffffffffffffffffffffffffffffffffffffffffffffffffff167fb70096130000000000000000000000000000000000000000000000000000000017905251610cdb91906113a3565b600060405180830381855afa9150503d8060008114610d16576040519150601f19603f3d011682016040523d82523d6000602084013e610d1b565b606091505b50915091508115610d6d576040815110610d4d5780806020019051810190610d4391906113cf565b9094509250610d6d565b6020815110610d6d5780806020019051810190610d6a919061140f565b93505b505094509492505050565b508054610d84906110cc565b6000825580601f10610d94575050565b601f01602090049060005260206000209081019061045191905b80821115610dc25760008155600101610dae565b5090565b600060208284031215610dd857600080fd5b5035919050565b60005b83811015610dfa578181015183820152602001610de2565b50506000910152565b60008151604084528051806040860152610e24816060870160208501610ddf565b6020938401516001600160a01b0316938501939093525050601f01601f19160160600190565b602081526000610e5d6020830184610e03565b9392505050565b634e487b7160e01b600052604160045260246000fd5b6040805190810167ffffffffffffffff81118282101715610e9d57610e9d610e64565b60405290565b604051601f8201601f1916810167ffffffffffffffff81118282101715610ecc57610ecc610e64565b604052919050565b80356001600160a01b0381168114610eeb57600080fd5b919050565b600060408284031215610f0257600080fd5b610f0a610e7a565b9050813567ffffffffffffffff811115610f2357600080fd5b8201601f81018413610f3457600080fd5b803567ffffffffffffffff811115610f4e57610f4e610e64565b610f61601f8201601f1916602001610ea3565b818152856020838501011115610f7657600080fd5b81602084016020830137600060208383010152808452505050610f9b60208301610ed4565b602082015292915050565b600060208284031215610fb857600080fd5b813567ffffffffffffffff811115610fcf57600080fd5b610fdb84828501610ef0565b949350505050565b60008060408385031215610ff657600080fd5b50508035926020909101359150565b6000602082016020835280845180835260408501915060408160051b86010192506020860160005b8281101561105e57603f19878603018452611049858351610e03565b9450602093840193919091019060010161102d565b50929695505050505050565b60006020828403121561107c57600080fd5b610e5d82610ed4565b6000806040838503121561109857600080fd5b82359150602083013567ffffffffffffffff8111156110b657600080fd5b6110c285828601610ef0565b9150509250929050565b600181811c908216806110e057607f821691505b60208210810361110057634e487b7160e01b600052602260045260246000fd5b50919050565b601f82111561114d57806000526020600020601f840160051c8101602085101561112d5750805b601f840160051c820191505b81811015610bd65760008155600101611139565b505050565b815167ffffffffffffffff81111561116c5761116c610e64565b6111808161117a84546110cc565b84611106565b6020601f8211600181146111b4576000831561119c5750848201515b600019600385901b1c1916600184901b178455610bd6565b600084815260208120601f198516915b828110156111e457878501518255602094850194600190920191016111c4565b50848210156112025786840151600019600387901b60f8161c191681555b50505050600190811b01905550565b82815260406020820152604080820152600080835461122f816110cc565b806080860152600182166000811461124e576001811461126a5761129e565b60ff19831660a087015260a082151560051b870101935061129e565b86600052602060002060005b8381101561129557815488820160a00152600190910190602001611276565b870160a0019450505b50505060018401546001600160a01b03166001600160a01b038116606085015250949350505050565b6000600182016112e757634e487b7160e01b600052601160045260246000fd5b5060010190565b634e487b7160e01b600052603260045260246000fd5b6000808585111561131457600080fd5b8386111561132157600080fd5b5050820193919092039150565b80356001600160e01b0319811690600484101561135d576001600160e01b0319808560040360031b1b82161691505b5092915050565b6001600160a01b038416815260406020820152816040820152818360608301376000818301606090810191909152601f909201601f1916010192915050565b600082516113b5818460208701610ddf565b9190910192915050565b80518015158114610eeb57600080fd5b600080604083850312156113e257600080fd5b6113eb836113bf565b9150602083015163ffffffff8116811461140457600080fd5b809150509250929050565b60006020828403121561142157600080fd5b610e5d826113bf56fea2646970667358221220826e9cf44af0961e15bf7a438dede0db4dcaafa25370f45f962b1ba42f663b7664736f6c634300081a0033",
  "linkReferences": {},
  "deployedLinkReferences": {}
}