{
  "_format": "hh-sol-artifact-1",
  "contractName": "OIDAccessManager",
  "sourceName": "contracts/OIDAccessManager.sol",
  "abi": [
    {
      "inputs": [
        {
          "internalType": "bytes32",
          "name": "operationId",
          "type": "bytes32"
        }
      ],
      "name": "AccessManagerAlreadyScheduled",
      "type": "error"
    },
    {
      "inputs": [],
      "name": "AccessManagerBadConfirmation",
      "type": "error"
    },
    {
      "inputs": [
        {
          "internalType": "bytes32",
          "name": "operationId",
          "type": "bytes32"
        }
      ],
      "name": "AccessManagerExpired",
      "type": "error"
    },
    {
      "inputs": [
        {
          "internalType": "address",
          "name": "initialAdmin",
          "type": "address"
        }
      ],
      "name": "AccessManagerInvalidInitialAdmin",
      "type": "error"
    },
    {
      "inputs": [
        {
          "internalType": "address",
          "name": "account",
          "type": "address"
        }
      ],
      "name": "AccessManagerLockedAccount",
      "type": "error"
    },
    {
      "inputs": [
        {
          "internalType": "uint64",
          "name": "roleId",
          "type": "uint64"
        }
      ],
      "name": "AccessManagerLockedRole",
      "type": "error"
    },
    {
      "inputs": [
        {
          "internalType": "bytes32",
          "name": "operationId",
          "type": "bytes32"
        }
      ],
      "name": "AccessManagerNotReady",
      "type": "error"
    },
    {
      "inputs": [
        {
          "internalType": "bytes32",
          "name": "operationId",
          "type": "bytes32"
        }
      ],
      "name": "AccessManagerNotScheduled",
      "type": "error"
    },
    {
      "inputs": [
        {
          "internalType": "address",
          "name": "msgsender",
          "type": "address"
        },
        {
          "internalType": "uint64",
          "name": "roleId",
          "type": "uint64"
        }
      ],
      "name": "AccessManagerUnauthorizedAccount",
      "type": "error"
    },
    {
      "inputs": [
        {
          "internalType": "address",
          "name": "caller",
          "type": "address"
        },
        {
          "internalType": "address",
          "name": "target",
          "type": "address"
        },
        {
          "internalType": "bytes4",
          "name": "selector",
          "type": "bytes4"
        }
      ],
      "name": "AccessManagerUnauthorizedCall",
      "type": "error"
    },
    {
      "inputs": [
        {
          "internalType": "address",
          "name": "msgsender",
          "type": "address"
        },
        {
          "internalType": "address",
          "name": "caller",
          "type": "address"
        },
        {
          "internalType": "address",
          "name": "target",
          "type": "address"
        },
        {
          "internalType": "bytes4",
          "name": "selector",
          "type": "bytes4"
        }
      ],
      "name": "AccessManagerUnauthorizedCancel",
      "type": "error"
    },
    {
      "inputs": [
        {
          "internalType": "address",
          "name": "target",
          "type": "address"
        }
      ],
      "name": "AccessManagerUnauthorizedConsume",
      "type": "error"
    },
    {
      "inputs": [
        {
          "internalType": "address",
          "name": "target",
          "type": "address"
        }
      ],
      "name": "AddressEmptyCode",
      "type": "error"
    },
    {
      "inputs": [
        {
          "internalType": "address",
          "name": "account",
          "type": "address"
        }
      ],
      "name": "AddressInsufficientBalance",
      "type": "error"
    },
    {
      "inputs": [],
      "name": "FailedInnerCall",
      "type": "error"
    },
    {
      "inputs": [],
      "name": "InvalidInitialization",
      "type": "error"
    },
    {
      "inputs": [],
      "name": "NotInitializing",
      "type": "error"
    },
    {
      "inputs": [
        {
          "internalType": "uint8",
          "name": "bits",
          "type": "uint8"
        },
        {
          "internalType": "uint256",
          "name": "value",
          "type": "uint256"
        }
      ],
      "name": "SafeCastOverflowedUintDowncast",
      "type": "error"
    },
    {
      "anonymous": false,
      "inputs": [
        {
          "indexed": false,
          "internalType": "uint64",
          "name": "version",
          "type": "uint64"
        }
      ],
      "name": "Initialized",
      "type": "event"
    },
    {
      "anonymous": false,
      "inputs": [
        {
          "indexed": true,
          "internalType": "bytes32",
          "name": "operationId",
          "type": "bytes32"
        },
        {
          "indexed": true,
          "internalType": "uint32",
          "name": "nonce",
          "type": "uint32"
        }
      ],
      "name": "OperationCanceled",
      "type": "event"
    },
    {
      "anonymous": false,
      "inputs": [
        {
          "indexed": true,
          "internalType": "bytes32",
          "name": "operationId",
          "type": "bytes32"
        },
        {
          "indexed": true,
          "internalType": "uint32",
          "name": "nonce",
          "type": "uint32"
        }
      ],
      "name": "OperationExecuted",
      "type": "event"
    },
    {
      "anonymous": false,
      "inputs": [
        {
          "indexed": true,
          "internalType": "bytes32",
          "name": "operationId",
          "type": "bytes32"
        },
        {
          "indexed": true,
          "internalType": "uint32",
          "name": "nonce",
          "type": "uint32"
        },
        {
          "indexed": false,
          "internalType": "uint48",
          "name": "schedule",
          "type": "uint48"
        },
        {
          "indexed": false,
          "internalType": "address",
          "name": "caller",
          "type": "address"
        },
        {
          "indexed": false,
          "internalType": "address",
          "name": "target",
          "type": "address"
        },
        {
          "indexed": false,
          "internalType": "bytes",
          "name": "data",
          "type": "bytes"
        }
      ],
      "name": "OperationScheduled",
      "type": "event"
    },
    {
      "anonymous": false,
      "inputs": [
        {
          "indexed": true,
          "internalType": "uint64",
          "name": "roleId",
          "type": "uint64"
        },
        {
          "indexed": true,
          "internalType": "uint64",
          "name": "admin",
          "type": "uint64"
        }
      ],
      "name": "RoleAdminChanged",
      "type": "event"
    },
    {
      "anonymous": false,
      "inputs": [
        {
          "indexed": true,
          "internalType": "uint64",
          "name": "roleId",
          "type": "uint64"
        },
        {
          "indexed": false,
          "internalType": "uint32",
          "name": "delay",
          "type": "uint32"
        },
        {
          "indexed": false,
          "internalType": "uint48",
          "name": "since",
          "type": "uint48"
        }
      ],
      "name": "RoleGrantDelayChanged",
      "type": "event"
    },
    {
      "anonymous": false,
      "inputs": [
        {
          "indexed": true,
          "internalType": "uint64",
          "name": "roleId",
          "type": "uint64"
        },
        {
          "indexed": true,
          "internalType": "address",
          "name": "account",
          "type": "address"
        },
        {
          "indexed": false,
          "internalType": "uint32",
          "name": "delay",
          "type": "uint32"
        },
        {
          "indexed": false,
          "internalType": "uint48",
          "name": "since",
          "type": "uint48"
        },
        {
          "indexed": false,
          "internalType": "bool",
          "name": "newMember",
          "type": "bool"
        }
      ],
      "name": "RoleGranted",
      "type": "event"
    },
    {
      "anonymous": false,
      "inputs": [
        {
          "indexed": true,
          "internalType": "uint64",
          "name": "roleId",
          "type": "uint64"
        },
        {
          "indexed": true,
          "internalType": "uint64",
          "name": "guardian",
          "type": "uint64"
        }
      ],
      "name": "RoleGuardianChanged",
      "type": "event"
    },
    {
      "anonymous": false,
      "inputs": [
        {
          "indexed": true,
          "internalType": "uint64",
          "name": "roleId",
          "type": "uint64"
        },
        {
          "indexed": false,
          "internalType": "string",
          "name": "label",
          "type": "string"
        }
      ],
      "name": "RoleLabel",
      "type": "event"
    },
    {
      "anonymous": false,
      "inputs": [
        {
          "indexed": true,
          "internalType": "uint64",
          "name": "roleId",
          "type": "uint64"
        },
        {
          "indexed": true,
          "internalType": "address",
          "name": "account",
          "type": "address"
        }
      ],
      "name": "RoleRevoked",
      "type": "event"
    },
    {
      "anonymous": false,
      "inputs": [
        {
          "indexed": true,
          "internalType": "address",
          "name": "target",
          "type": "address"
        },
        {
          "indexed": false,
          "internalType": "uint32",
          "name": "delay",
          "type": "uint32"
        },
        {
          "indexed": false,
          "internalType": "uint48",
          "name": "since",
          "type": "uint48"
        }
      ],
      "name": "TargetAdminDelayUpdated",
      "type": "event"
    },
    {
      "anonymous": false,
      "inputs": [
        {
          "indexed": true,
          "internalType": "address",
          "name": "target",
          "type": "address"
        },
        {
          "indexed": false,
          "internalType": "bool",
          "name": "closed",
          "type": "bool"
        }
      ],
      "name": "TargetClosed",
      "type": "event"
    },
    {
      "anonymous": false,
      "inputs": [
        {
          "indexed": true,
          "internalType": "address",
          "name": "target",
          "type": "address"
        },
        {
          "indexed": false,
          "internalType": "bytes4",
          "name": "selector",
          "type": "bytes4"
        },
        {
          "indexed": true,
          "internalType": "uint64",
          "name": "roleId",
          "type": "uint64"
        }
      ],
      "name": "TargetFunctionRoleUpdated",
      "type": "event"
    },
    {
      "inputs": [],
      "name": "ADMIN_ROLE",
      "outputs": [
        {
          "internalType": "uint64",
          "name": "",
          "type": "uint64"
        }
      ],
      "stateMutability": "view",
      "type": "function"
    },
    {
      "inputs": [],
      "name": "PUBLIC_ROLE",
      "outputs": [
        {
          "internalType": "uint64",
          "name": "",
          "type": "uint64"
        }
      ],
      "stateMutability": "view",
      "type": "function"
    },
    {
      "inputs": [
        {
          "internalType": "address",
          "name": "caller",
          "type": "address"
        },
        {
          "internalType": "address",
          "name": "target",
          "type": "address"
        },
        {
          "internalType": "bytes4",
          "name": "selector",
          "type": "bytes4"
        }
      ],
      "name": "canCall",
      "outputs": [
        {
          "internalType": "bool",
          "name": "immediate",
          "type": "bool"
        },
        {
          "internalType": "uint32",
          "name": "delay",
          "type": "uint32"
        }
      ],
      "stateMutability": "view",
      "type": "function"
    },
    {
      "inputs": [
        {
          "internalType": "address",
          "name": "caller",
          "type": "address"
        },
        {
          "internalType": "address",
          "name": "target",
          "type": "address"
        },
        {
          "internalType": "bytes",
          "name": "data",
          "type": "bytes"
        }
      ],
      "name": "cancel",
      "outputs": [
        {
          "internalType": "uint32",
          "name": "",
          "type": "uint32"
        }
      ],
      "stateMutability": "nonpayable",
      "type": "function"
    },
    {
      "inputs": [
        {
          "internalType": "address",
          "name": "caller",
          "type": "address"
        },
        {
          "internalType": "bytes",
          "name": "data",
          "type": "bytes"
        }
      ],
      "name": "consumeScheduledOp",
      "outputs": [],
      "stateMutability": "nonpayable",
      "type": "function"
    },
    {
      "inputs": [
        {
          "internalType": "address",
          "name": "target",
          "type": "address"
        },
        {
          "internalType": "bytes",
          "name": "data",
          "type": "bytes"
        }
      ],
      "name": "execute",
      "outputs": [
        {
          "internalType": "uint32",
          "name": "",
          "type": "uint32"
        }
      ],
      "stateMutability": "payable",
      "type": "function"
    },
    {
      "inputs": [],
      "name": "expiration",
      "outputs": [
        {
          "internalType": "uint32",
          "name": "",
          "type": "uint32"
        }
      ],
      "stateMutability": "view",
      "type": "function"
    },
    {
      "inputs": [
        {
          "internalType": "uint64",
          "name": "roleId",
          "type": "uint64"
        },
        {
          "internalType": "address",
          "name": "account",
          "type": "address"
        }
      ],
      "name": "getAccess",
      "outputs": [
        {
          "internalType": "uint48",
          "name": "since",
          "type": "uint48"
        },
        {
          "internalType": "uint32",
          "name": "currentDelay",
          "type": "uint32"
        },
        {
          "internalType": "uint32",
          "name": "pendingDelay",
          "type": "uint32"
        },
        {
          "internalType": "uint48",
          "name": "effect",
          "type": "uint48"
        }
      ],
      "stateMutability": "view",
      "type": "function"
    },
    {
      "inputs": [
        {
          "internalType": "bytes32",
          "name": "id",
          "type": "bytes32"
        }
      ],
      "name": "getNonce",
      "outputs": [
        {
          "internalType": "uint32",
          "name": "",
          "type": "uint32"
        }
      ],
      "stateMutability": "view",
      "type": "function"
    },
    {
      "inputs": [
        {
          "internalType": "uint64",
          "name": "roleId",
          "type": "uint64"
        }
      ],
      "name": "getRoleAdmin",
      "outputs": [
        {
          "internalType": "uint64",
          "name": "",
          "type": "uint64"
        }
      ],
      "stateMutability": "view",
      "type": "function"
    },
    {
      "inputs": [
        {
          "internalType": "uint64",
          "name": "roleId",
          "type": "uint64"
        }
      ],
      "name": "getRoleGrantDelay",
      "outputs": [
        {
          "internalType": "uint32",
          "name": "",
          "type": "uint32"
        }
      ],
      "stateMutability": "view",
      "type": "function"
    },
    {
      "inputs": [
        {
          "internalType": "uint64",
          "name": "roleId",
          "type": "uint64"
        }
      ],
      "name": "getRoleGuardian",
      "outputs": [
        {
          "internalType": "uint64",
          "name": "",
          "type": "uint64"
        }
      ],
      "stateMutability": "view",
      "type": "function"
    },
    {
      "inputs": [
        {
          "internalType": "bytes32",
          "name": "id",
          "type": "bytes32"
        }
      ],
      "name": "getSchedule",
      "outputs": [
        {
          "internalType": "uint48",
          "name": "",
          "type": "uint48"
        }
      ],
      "stateMutability": "view",
      "type": "function"
    },
    {
      "inputs": [
        {
          "internalType": "address",
          "name": "target",
          "type": "address"
        }
      ],
      "name": "getTargetAdminDelay",
      "outputs": [
        {
          "internalType": "uint32",
          "name": "",
          "type": "uint32"
        }
      ],
      "stateMutability": "view",
      "type": "function"
    },
    {
      "inputs": [
        {
          "internalType": "address",
          "name": "target",
          "type": "address"
        },
        {
          "internalType": "bytes4",
          "name": "selector",
          "type": "bytes4"
        }
      ],
      "name": "getTargetFunctionRole",
      "outputs": [
        {
          "internalType": "uint64",
          "name": "",
          "type": "uint64"
        }
      ],
      "stateMutability": "view",
      "type": "function"
    },
    {
      "inputs": [
        {
          "internalType": "uint64",
          "name": "roleId",
          "type": "uint64"
        },
        {
          "internalType": "address",
          "name": "account",
          "type": "address"
        },
        {
          "internalType": "uint32",
          "name": "executionDelay",
          "type": "uint32"
        }
      ],
      "name": "grantRole",
      "outputs": [],
      "stateMutability": "nonpayable",
      "type": "function"
    },
    {
      "inputs": [
        {
          "internalType": "uint64",
          "name": "roleId",
          "type": "uint64"
        },
        {
          "internalType": "address",
          "name": "account",
          "type": "address"
        }
      ],
      "name": "hasRole",
      "outputs": [
        {
          "internalType": "bool",
          "name": "isMember",
          "type": "bool"
        },
        {
          "internalType": "uint32",
          "name": "executionDelay",
          "type": "uint32"
        }
      ],
      "stateMutability": "view",
      "type": "function"
    },
    {
      "inputs": [
        {
          "internalType": "address",
          "name": "caller",
          "type": "address"
        },
        {
          "internalType": "address",
          "name": "target",
          "type": "address"
        },
        {
          "internalType": "bytes",
          "name": "data",
          "type": "bytes"
        }
      ],
      "name": "hashOperation",
      "outputs": [
        {
          "internalType": "bytes32",
          "name": "",
          "type": "bytes32"
        }
      ],
      "stateMutability": "view",
      "type": "function"
    },
    {
      "inputs": [],
      "name": "initialize",
      "outputs": [],
      "stateMutability": "nonpayable",
      "type": "function"
    },
    {
      "inputs": [
        {
          "internalType": "address",
          "name": "target",
          "type": "address"
        }
      ],
      "name": "isTargetClosed",
      "outputs": [
        {
          "internalType": "bool",
          "name": "",
          "type": "bool"
        }
      ],
      "stateMutability": "view",
      "type": "function"
    },
    {
      "inputs": [
        {
          "internalType": "uint64",
          "name": "roleId",
          "type": "uint64"
        },
        {
          "internalType": "string",
          "name": "label",
          "type": "string"
        }
      ],
      "name": "labelRole",
      "outputs": [],
      "stateMutability": "nonpayable",
      "type": "function"
    },
    {
      "inputs": [],
      "name": "minSetback",
      "outputs": [
        {
          "internalType": "uint32",
          "name": "",
          "type": "uint32"
        }
      ],
      "stateMutability": "view",
      "type": "function"
    },
    {
      "inputs": [
        {
          "internalType": "bytes[]",
          "name": "data",
          "type": "bytes[]"
        }
      ],
      "name": "multicall",
      "outputs": [
        {
          "internalType": "bytes[]",
          "name": "results",
          "type": "bytes[]"
        }
      ],
      "stateMutability": "nonpayable",
      "type": "function"
    },
    {
      "inputs": [
        {
          "internalType": "uint64",
          "name": "roleId",
          "type": "uint64"
        },
        {
          "internalType": "address",
          "name": "callerConfirmation",
          "type": "address"
        }
      ],
      "name": "renounceRole",
      "outputs": [],
      "stateMutability": "nonpayable",
      "type": "function"
    },
    {
      "inputs": [
        {
          "internalType": "uint64",
          "name": "roleId",
          "type": "uint64"
        },
        {
          "internalType": "address",
          "name": "account",
          "type": "address"
        }
      ],
      "name": "revokeRole",
      "outputs": [],
      "stateMutability": "nonpayable",
      "type": "function"
    },
    {
      "inputs": [
        {
          "internalType": "address",
          "name": "target",
          "type": "address"
        },
        {
          "internalType": "bytes",
          "name": "data",
          "type": "bytes"
        },
        {
          "internalType": "uint48",
          "name": "when",
          "type": "uint48"
        }
      ],
      "name": "schedule",
      "outputs": [
        {
          "internalType": "bytes32",
          "name": "operationId",
          "type": "bytes32"
        },
        {
          "internalType": "uint32",
          "name": "nonce",
          "type": "uint32"
        }
      ],
      "stateMutability": "nonpayable",
      "type": "function"
    },
    {
      "inputs": [
        {
          "internalType": "uint64",
          "name": "roleId",
          "type": "uint64"
        },
        {
          "internalType": "uint32",
          "name": "newDelay",
          "type": "uint32"
        }
      ],
      "name": "setGrantDelay",
      "outputs": [],
      "stateMutability": "nonpayable",
      "type": "function"
    },
    {
      "inputs": [
        {
          "internalType": "uint64",
          "name": "roleId",
          "type": "uint64"
        },
        {
          "internalType": "uint64",
          "name": "admin",
          "type": "uint64"
        }
      ],
      "name": "setRoleAdmin",
      "outputs": [],
      "stateMutability": "nonpayable",
      "type": "function"
    },
    {
      "inputs": [
        {
          "internalType": "uint64",
          "name": "roleId",
          "type": "uint64"
        },
        {
          "internalType": "uint64",
          "name": "guardian",
          "type": "uint64"
        }
      ],
      "name": "setRoleGuardian",
      "outputs": [],
      "stateMutability": "nonpayable",
      "type": "function"
    },
    {
      "inputs": [
        {
          "internalType": "address",
          "name": "target",
          "type": "address"
        },
        {
          "internalType": "uint32",
          "name": "newDelay",
          "type": "uint32"
        }
      ],
      "name": "setTargetAdminDelay",
      "outputs": [],
      "stateMutability": "nonpayable",
      "type": "function"
    },
    {
      "inputs": [
        {
          "internalType": "address",
          "name": "target",
          "type": "address"
        },
        {
          "internalType": "bool",
          "name": "closed",
          "type": "bool"
        }
      ],
      "name": "setTargetClosed",
      "outputs": [],
      "stateMutability": "nonpayable",
      "type": "function"
    },
    {
      "inputs": [
        {
          "internalType": "address",
          "name": "target",
          "type": "address"
        },
        {
          "internalType": "bytes4[]",
          "name": "selectors",
          "type": "bytes4[]"
        },
        {
          "internalType": "uint64",
          "name": "roleId",
          "type": "uint64"
        }
      ],
      "name": "setTargetFunctionRole",
      "outputs": [],
      "stateMutability": "nonpayable",
      "type": "function"
    },
    {
      "inputs": [
        {
          "internalType": "address",
          "name": "target",
          "type": "address"
        },
        {
          "internalType": "address",
          "name": "newAuthority",
          "type": "address"
        }
      ],
      "name": "updateAuthority",
      "outputs": [],
      "stateMutability": "nonpayable",
      "type": "function"
    }
  ],
  "bytecode": "0x6080604052348015600f57600080fd5b5061322a8061001f6000396000f3fe6080604052600436106101fe5760003560e01c80636d5115bd1161011d578063ac9650d8116100b0578063d1f856ee1161007f578063d6bb62c611610064578063d6bb62c614610745578063f801a69814610765578063fe0776f51461079f57600080fd5b8063d1f856ee14610705578063d22b59891461072557600080fd5b8063ac9650d814610666578063b700961314610693578063b7d2b162146106cf578063cc1b6c81146106ef57600080fd5b806394c7d7ee116100ec57806394c7d7ee14610598578063a166aa89146105b8578063a64d95ce14610618578063abd9bd2a1461063857600080fd5b80636d5115bd1461052e57806375b238fc1461054e5780638129fc1c14610563578063853551b81461057857600080fd5b806330cae187116101955780634665096d116101645780634665096d1461047c5780634c1da1e21461049257806352962952146104b2578063530dd456146104d257600080fd5b806330cae187146103ad5780633adc277a146103cd5780633ca7c02a146104045780634136a33c1461042057600080fd5b806318ff183c116101d157806318ff183c146103005780631cff79cd1461032057806325c471a0146103335780633078f1141461035357600080fd5b806308d6122d146102035780630b0a93ba1461022557806312be8727146102ab578063167bd395146102e0575b600080fd5b34801561020f57600080fd5b5061022361021e366004612a64565b6107bf565b005b34801561023157600080fd5b5061028d610240366004612acb565b67ffffffffffffffff90811660009081527f40c6c8c28789853c7efd823ab20824bbd71718a8a5915e855f6f288c9a26ad0160205260409020600101546801000000000000000090041690565b60405167ffffffffffffffff90911681526020015b60405180910390f35b3480156102b757600080fd5b506102cb6102c6366004612acb565b610812565b60405163ffffffff90911681526020016102a2565b3480156102ec57600080fd5b506102236102fb366004612ae6565b61087e565b34801561030c57600080fd5b5061022361031b366004612b24565b610894565b6102cb61032e366004612b94565b610914565b34801561033f57600080fd5b5061022361034e366004612bfd565b610ab3565b34801561035f57600080fd5b5061037361036e366004612c42565b610ad5565b6040516102a2949392919065ffffffffffff948516815263ffffffff93841660208201529190921660408201529116606082015260800190565b3480156103b957600080fd5b506102236103c8366004612c5e565b610b6d565b3480156103d957600080fd5b506103ed6103e8366004612c91565b610b7f565b60405165ffffffffffff90911681526020016102a2565b34801561041057600080fd5b5061028d67ffffffffffffffff81565b34801561042c57600080fd5b506102cb61043b366004612c91565b60009081527f40c6c8c28789853c7efd823ab20824bbd71718a8a5915e855f6f288c9a26ad0260205260409020546601000000000000900463ffffffff1690565b34801561048857600080fd5b5062093a806102cb565b34801561049e57600080fd5b506102cb6104ad366004612caa565b610be3565b3480156104be57600080fd5b506102236104cd366004612c5e565b610c20565b3480156104de57600080fd5b5061028d6104ed366004612acb565b67ffffffffffffffff90811660009081527f40c6c8c28789853c7efd823ab20824bbd71718a8a5915e855f6f288c9a26ad0160205260409020600101541690565b34801561053a57600080fd5b5061028d610549366004612cdd565b610c32565b34801561055a57600080fd5b5061028d600081565b34801561056f57600080fd5b50610223610c7e565b34801561058457600080fd5b50610223610593366004612d0b565b610db9565b3480156105a457600080fd5b506102236105b3366004612b94565b610e54565b3480156105c457600080fd5b506106086105d3366004612caa565b6001600160a01b031660009081526000805160206131d58339815191526020526040902060010154600160701b900460ff1690565b60405190151581526020016102a2565b34801561062457600080fd5b50610223610633366004612d29565b610f32565b34801561064457600080fd5b50610658610653366004612d53565b610f44565b6040519081526020016102a2565b34801561067257600080fd5b50610686610681366004612db8565b610f7d565b6040516102a29190612e1e565b34801561069f57600080fd5b506106b36106ae366004612e9e565b611065565b60408051921515835263ffffffff9091166020830152016102a2565b3480156106db57600080fd5b506102236106ea366004612c42565b611172565b3480156106fb57600080fd5b50620697806102cb565b34801561071157600080fd5b506106b3610720366004612c42565b611189565b34801561073157600080fd5b50610223610740366004612ee9565b611207565b34801561075157600080fd5b506102cb610760366004612d53565b611219565b34801561077157600080fd5b50610785610780366004612f07565b6113a3565b6040805192835263ffffffff9091166020830152016102a2565b3480156107ab57600080fd5b506102236107ba366004612c42565b611550565b6107c7611592565b60005b8281101561080b57610803858585848181106107e8576107e8612f7a565b90506020020160208101906107fd9190612f90565b84611627565b6001016107ca565b5050505050565b67ffffffffffffffff811660009081527f40c6c8c28789853c7efd823ab20824bbd71718a8a5915e855f6f288c9a26ad0160205260408120600101546000805160206131d58339815191529061087790600160801b90046001600160701b03166116bd565b9392505050565b610886611592565b61089082826116dc565b5050565b61089c611592565b6040517f7a9e5e4b0000000000000000000000000000000000000000000000000000000081526001600160a01b038281166004830152831690637a9e5e4b90602401600060405180830381600087803b1580156108f857600080fd5b505af115801561090c573d6000803e3d6000fd5b505050505050565b60006000805160206131d5833981519152338280610934838989896117a9565b915091508115801561094a575063ffffffff8116155b156109b657828861095b89896117fc565b6040517f81c6f24b0000000000000000000000000000000000000000000000000000000081526001600160a01b0393841660048201529290911660248301526001600160e01b03191660448201526064015b60405180910390fd5b60006109c4848a8a8a610f44565b9050600063ffffffff83161515806109eb57506109e082610b7f565b65ffffffffffff1615155b156109fc576109f982611814565b90505b6003860154610a518b610a0f8c8c6117fc565b604080516001600160a01b03939093166020808501919091526001600160e01b0319929092168382015280518084038201815260609093019052815191012090565b8760030181905550610a9b8b8b8b8080601f01602080910402602001604051908101604052809392919081815260200183838082843760009201919091525034925061197b915050565b50600390960195909555509293505050509392505050565b610abb611592565b610acf8383610ac986610812565b84611a31565b50505050565b67ffffffffffffffff821660009081527f40c6c8c28789853c7efd823ab20824bbd71718a8a5915e855f6f288c9a26ad01602090815260408083206001600160a01b03851684529091528120805465ffffffffffff81169291829182916000805160206131d583398151915291610b5e90660100000000000090046001600160701b0316611cbc565b979a9199509750945050505050565b610b75611592565b6108908282611cdf565b60008181527f40c6c8c28789853c7efd823ab20824bbd71718a8a5915e855f6f288c9a26ad0260205260408120546000805160206131d58339815191529065ffffffffffff16610bce81611d98565b610bd85780610bdb565b60005b949350505050565b6001600160a01b03811660009081526000805160206131d583398151915260208190526040822060010154610877906001600160701b03166116bd565b610c28611592565b6108908282611dc7565b6001600160a01b03821660009081526000805160206131d5833981519152602090815260408083206001600160e01b03198516845290915290205467ffffffffffffffff165b92915050565b7ff0c57e16840df040f15088dc2f81fe391c3923bec73e23a9662efc9c229c6a00805468010000000000000000810460ff16159067ffffffffffffffff16600081158015610cc95750825b905060008267ffffffffffffffff166001148015610ce65750303b155b905081158015610cf4575080155b15610d2b576040517ff92ee8a900000000000000000000000000000000000000000000000000000000815260040160405180910390fd5b845467ffffffffffffffff191660011785558315610d5f57845468ff00000000000000001916680100000000000000001785555b610d6833611ea2565b831561080b57845468ff000000000000000019168555604051600181527fc7f505b2f371ae2175ee4913f4499e1f2633a7b5936321eed1cdaeb6115181d29060200160405180910390a15050505050565b610dc1611592565b67ffffffffffffffff83161580610de1575067ffffffffffffffff838116145b15610e0b5760405163061c6a4360e21b815267ffffffffffffffff841660048201526024016109ad565b8267ffffffffffffffff167f1256f5b5ecb89caec12db449738f2fbcd1ba5806cf38f35413f4e5c15bf6a4508383604051610e47929190612fd6565b60405180910390a2505050565b604080517f8fb360370000000000000000000000000000000000000000000000000000000080825291513392918391638fb36037916004808201926020929091908290030181865afa158015610eae573d6000803e3d6000fd5b505050506040513d601f19601f82011682018060405250810190610ed29190612fea565b6001600160e01b03191614610f1e576040517f320ff7480000000000000000000000000000000000000000000000000000000081526001600160a01b03821660048201526024016109ad565b61080b610f2d85838686610f44565b611814565b610f3a611592565b6108908282611eb6565b600084848484604051602001610f5d9493929190613007565b604051602081830303815290604052805190602001209050949350505050565b6040805160008152602081019091526060908267ffffffffffffffff811115610fa857610fa8613079565b604051908082528060200260200182016040528015610fdb57816020015b6060815260200190600190039081610fc65790505b50915060005b8381101561105d5761103830868684818110610fff57610fff612f7a565b9050602002810190611011919061308f565b85604051602001611024939291906130d6565b604051602081830303815290604052611ff8565b83828151811061104a5761104a612f7a565b6020908102919091010152600101610fe1565b505092915050565b6000806110a1846001600160a01b031660009081526000805160206131d58339815191526020526040902060010154600160701b900460ff1690565b156110b15750600090508061116a565b306001600160a01b0386160361112c57604080516001600160a01b0386166020808301919091526001600160e01b0319861682840152825180830384018152606090920190925280519101207f40c6c8c28789853c7efd823ab20824bbd71718a8a5915e855f6f288c9a26ad0354145b60009150915061116a565b60006111388585610c32565b90506000806111478389611189565b915091508161115857600080611162565b63ffffffff811615815b945094505050505b935093915050565b61117a611592565b611184828261206e565b505050565b60008067fffffffffffffffe1967ffffffffffffffff8516016111b25750600190506000611200565b6000806111bf8686610ad5565b5050915091508165ffffffffffff166000141580156111f557506111e1612182565b65ffffffffffff168265ffffffffffff1611155b935091506112009050565b9250929050565b61120f611592565b6108908282612192565b60006000805160206131d5833981519152338261123686866117fc565b9050600061124689898989610f44565b600081815260028601602052604081205491925065ffffffffffff90911690036112865760405163060a299b60e41b8152600481018290526024016109ad565b826001600160a01b0316896001600160a01b03161461133b5760006112ac600085611189565b50905060006112c76112c16102408c87610c32565b86611189565b509050811580156112d6575080155b15611338576040517f3fe2751c0000000000000000000000000000000000000000000000000000000081526001600160a01b038087166004830152808d1660248301528b1660448201526001600160e01b0319851660648201526084016109ad565b50505b6000818152600285016020526040808220805465ffffffffffff1916908190559051660100000000000090910463ffffffff1691829184917fbd9ac67a6e2f6463b80927326310338bcbb4bdb7936ce1365ea3e01067e7b9f791a39998505050505050505050565b6000806000805160206131d583398151915233826113c3828a8a8a6117a9565b91505060008163ffffffff166113d7612182565b6113e191906130fd565b905063ffffffff82161580611418575060008765ffffffffffff1611801561141857508065ffffffffffff168765ffffffffffff16105b1561142957828a61095b8b8b6117fc565b6114438765ffffffffffff168265ffffffffffff16612261565b9650611451838b8b8b610f44565b955061145c86612277565b83600201600087815260200190815260200160002060000160069054906101000a900463ffffffff1660010194508684600201600088815260200190815260200160002060000160006101000a81548165ffffffffffff021916908365ffffffffffff1602179055508484600201600088815260200190815260200160002060000160066101000a81548163ffffffff021916908363ffffffff1602179055508463ffffffff16867f82a2da5dee54ea8021c6545b4444620291e07ee83be6dd57edb175062715f3b489868e8e8e60405161153b95949392919061311b565b60405180910390a35050505094509492505050565b6001600160a01b038116331461117a576040517f5f159e6300000000000000000000000000000000000000000000000000000000815260040160405180910390fd5b336000806115a183823661230c565b9150915081611184578063ffffffff166000036116175760006115c48136612424565b506040517ff07e038f0000000000000000000000000000000000000000000000000000000081526001600160a01b038716600482015267ffffffffffffffff8216602482015290925060440190506109ad565b610acf610f2d8430600036610f44565b60006000805160206131d58339815191526001600160a01b0385166000818152602083815260408083206001600160e01b0319891680855290835292819020805467ffffffffffffffff191667ffffffffffffffff891690811790915590519283529394507f9ea6790c7dadfd01c9f8b9762b3682607af2c7e79e05a9f9fdf5580dde949151910160405180910390a350505050565b6000806116d2836001600160701b0316611cbc565b5090949350505050565b6000805160206131d5833981519152306001600160a01b03841603611738576040517f5a068bc80000000000000000000000000000000000000000000000000000000081526001600160a01b03841660048201526024016109ad565b6001600160a01b038316600081815260208390526040908190206001018054851515600160701b026eff000000000000000000000000000019909116179055517f90d4e7bb7e5d933792b3562e1741306f8be94837e1348dacef9b6f1df56eb13890610e4790851515815260200190565b600080306001600160a01b038616036117d0576117c786858561230c565b915091506117f3565b600483106117ec576117e786866106ae87876117fc565b6117c7565b5060009050805b94509492505050565b600061180b600482848661304f565b61087791613166565b60008181527f40c6c8c28789853c7efd823ab20824bbd71718a8a5915e855f6f288c9a26ad0260205260408120546000805160206131d58339815191529065ffffffffffff8116906601000000000000900463ffffffff1681840361188f5760405163060a299b60e41b8152600481018690526024016109ad565b611897612182565b65ffffffffffff168265ffffffffffff1611156118e3576040517f18cb6b7a000000000000000000000000000000000000000000000000000000008152600481018690526024016109ad565b6118ec82611d98565b15611926576040517f78a5d6e4000000000000000000000000000000000000000000000000000000008152600481018690526024016109ad565b6000858152600284016020526040808220805465ffffffffffff191690555163ffffffff83169187917f76a2a46953689d4861a5d3f6ed883ad7e6af674a21f8e162707159fc9dde614d9190a3949350505050565b6060814710156119b9576040517fcd7860590000000000000000000000000000000000000000000000000000000081523060048201526024016109ad565b600080856001600160a01b031684866040516119d5919061319c565b60006040518083038185875af1925050503d8060008114611a12576040519150601f19603f3d011682016040523d82523d6000602084013e611a17565b606091505b5091509150611a27868383612726565b9695505050505050565b60006000805160206131d583398151915267ffffffffffffffff861667fffffffffffffffe1901611a815760405163061c6a4360e21b815267ffffffffffffffff871660048201526024016109ad565b67ffffffffffffffff8616600090815260018201602090815260408083206001600160a01b038916845290915281205465ffffffffffff1615908115611b89578563ffffffff16611ad0612182565b611ada91906130fd565b905060405180604001604052808265ffffffffffff168152602001611b088763ffffffff1663ffffffff1690565b6001600160701b0390811690915267ffffffffffffffff8a16600090815260018601602090815260408083206001600160a01b038d168452825290912083518154949092015190921666010000000000000273ffffffffffffffffffffffffffffffffffffffff1990931665ffffffffffff90911617919091179055611c4c565b67ffffffffffffffff8816600090815260018401602090815260408083206001600160a01b038b168452909152812054611bd99166010000000000009091046001600160701b031690879061279b565b67ffffffffffffffff8a16600090815260018601602090815260408083206001600160a01b038d168452909152902080546001600160701b039093166601000000000000027fffffffffffffffffffffffff0000000000000000000000000000ffffffffffff9093169290921790915590505b6040805163ffffffff8716815265ffffffffffff831660208201528315158183015290516001600160a01b0389169167ffffffffffffffff8b16917ff98448b987f1428e0e230e1f3c6e2ce15b5693eaf31827fbd0b1ec4b424ae7cf9181900360600190a3509695505050505050565b6000806000611cd284611ccd612182565b612845565b9250925092509193909250565b6000805160206131d583398151915267ffffffffffffffff83161580611d0e575067ffffffffffffffff838116145b15611d385760405163061c6a4360e21b815267ffffffffffffffff841660048201526024016109ad565b67ffffffffffffffff838116600081815260018481016020526040808320909101805467ffffffffffffffff19169487169485179055517f1fd6dd7631312dfac2205b52913f99de03b4d7e381d5d27d3dbfe0713e6e63409190a3505050565b6000611da2612182565b65ffffffffffff16611db762093a80846130fd565b65ffffffffffff16111592915050565b6000805160206131d583398151915267ffffffffffffffff83161580611df6575067ffffffffffffffff838116145b15611e205760405163061c6a4360e21b815267ffffffffffffffff841660048201526024016109ad565b67ffffffffffffffff83811660008181526001848101602052604080832090910180547fffffffffffffffffffffffffffffffff0000000000000000ffffffffffffffff1668010000000000000000958816958602179055517f7a8059630b897b5de4c08ade69f8b90c3ead1f8596d62d10b6c4d14a0afb4ae29190a3505050565b611eaa612899565b611eb381612902565b50565b6000805160206131d583398151915267ffffffffffffffff831667fffffffffffffffe1901611f045760405163061c6a4360e21b815267ffffffffffffffff841660048201526024016109ad565b67ffffffffffffffff831660009081526001828101602052604082200154611f4090600160801b90046001600160701b0316846206978061279b565b67ffffffffffffffff8616600081815260018087016020526040918290200180546001600160701b03909516600160801b027fffff0000000000000000000000000000ffffffffffffffffffffffffffffffff9095169490941790935591519092507ffeb69018ee8b8fd50ea86348f1267d07673379f72cffdeccec63853ee8ce8b4890611fea908690859063ffffffff92909216825265ffffffffffff16602082015260400190565b60405180910390a250505050565b6060600080846001600160a01b031684604051612015919061319c565b600060405180830381855af49150503d8060008114612050576040519150601f19603f3d011682016040523d82523d6000602084013e612055565b606091505b5091509150612065858383612726565b95945050505050565b60006000805160206131d583398151915267ffffffffffffffff841667fffffffffffffffe19016120be5760405163061c6a4360e21b815267ffffffffffffffff851660048201526024016109ad565b67ffffffffffffffff8416600090815260018201602090815260408083206001600160a01b038716845290915281205465ffffffffffff169003612106576000915050610c78565b67ffffffffffffffff8416600081815260018301602090815260408083206001600160a01b0388168085529252808320805473ffffffffffffffffffffffffffffffffffffffff19169055519092917ff229baa593af28c41b1d16b748cd7688f0c83aaf92d4be41c44005defe84c16691a35060019392505050565b600061218d4261295b565b905090565b6001600160a01b03821660009081526000805160206131d5833981519152602081905260408220600101549091906121d7906001600160701b0316846206978061279b565b6001600160a01b0386166000818152602086815260409182902060010180546dffffffffffffffffffffffffffff19166001600160701b039690961695909517909455805163ffffffff8816815265ffffffffffff841694810194909452919350917fa56b76017453f399ec2327ba00375dbfb1fd070ff854341ad6191e6a2e2de19c9101611fea565b60008183116122705781610877565b5090919050565b60008181527f40c6c8c28789853c7efd823ab20824bbd71718a8a5915e855f6f288c9a26ad0260205260409020546000805160206131d58339815191529065ffffffffffff1680158015906122d257506122d081611d98565b155b15611184576040517f813e9459000000000000000000000000000000000000000000000000000000008152600481018490526024016109ad565b60008060048310156123235750600090508061116a565b306001600160a01b038616036123a6576111213061234186866117fc565b604080516001600160a01b03939093166020808501919091526001600160e01b031992909216838201528051808403820181526060909301905281519101207f40c6c8c28789853c7efd823ab20824bbd71718a8a5915e855f6f288c9a26ad03541490565b60008060006123b58787612424565b925092509250826123cf576000809450945050505061116a565b6000806123dc848b611189565b91509150816123f65760008096509650505050505061116a565b61240c8363ffffffff168263ffffffff16612261565b63ffffffff8116159b909a5098505050505050505050565b60008080600484101561243f5750600091508190508061271f565b600061244b86866117fc565b90506001600160e01b031981167f853551b80000000000000000000000000000000000000000000000000000000014806124ae57506001600160e01b031981167f30cae18700000000000000000000000000000000000000000000000000000000145b806124e257506001600160e01b031981167f5296295200000000000000000000000000000000000000000000000000000000145b8061251657506001600160e01b031981167fa64d95ce00000000000000000000000000000000000000000000000000000000145b8061254a57506001600160e01b031981167fd22b598900000000000000000000000000000000000000000000000000000000145b156125605760016000809350935093505061271f565b6001600160e01b031981167f18ff183c0000000000000000000000000000000000000000000000000000000014806125c157506001600160e01b031981167f167bd39500000000000000000000000000000000000000000000000000000000145b806125f557506001600160e01b031981167f08d6122d00000000000000000000000000000000000000000000000000000000145b1561263757600061260a60246004888a61304f565b8101906126179190612caa565b9050600061262482610be3565b6001965060009550935061271f92505050565b6001600160e01b031981167f25c471a000000000000000000000000000000000000000000000000000000000148061269857506001600160e01b031981167fb7d2b16200000000000000000000000000000000000000000000000000000000145b156127125760006126ad60246004888a61304f565b8101906126ba9190612acb565b905060016127038267ffffffffffffffff90811660009081527f40c6c8c28789853c7efd823ab20824bbd71718a8a5915e855f6f288c9a26ad0160205260409020600101541690565b6000945094509450505061271f565b6000806000935093509350505b9250925092565b60608261273b57612736826129ab565b610877565b815115801561275257506001600160a01b0384163b155b15612794576040517f9996b3150000000000000000000000000000000000000000000000000000000081526001600160a01b03851660048201526024016109ad565b5080610877565b60008060006127b2866001600160701b03166116bd565b905060006127ef8563ffffffff168763ffffffff168463ffffffff16116127da5760006127e4565b6127e488856131b8565b63ffffffff16612261565b90508063ffffffff16612800612182565b61280a91906130fd565b925063ffffffff8616602083901b67ffffffff0000000016604085901b6dffffffffffff000000000000000016171793505050935093915050565b6000808069ffffffffffffffffffff602086901c166001600160701b03861665ffffffffffff604088901c811690871681111561288457828282612889565b816000805b9550955095505050509250925092565b7ff0c57e16840df040f15088dc2f81fe391c3923bec73e23a9662efc9c229c6a005468010000000000000000900460ff16612900576040517fd7e6bcf800000000000000000000000000000000000000000000000000000000815260040160405180910390fd5b565b61290a612899565b6001600160a01b03811661294d576040517f0813ada2000000000000000000000000000000000000000000000000000000008152600060048201526024016109ad565b610890600082600080611a31565b600065ffffffffffff8211156129a7576040517f6dfcc65000000000000000000000000000000000000000000000000000000000815260306004820152602481018390526044016109ad565b5090565b8051156129bb5780518082602001fd5b6040517f1425ea4200000000000000000000000000000000000000000000000000000000815260040160405180910390fd5b6001600160a01b0381168114611eb357600080fd5b60008083601f840112612a1457600080fd5b50813567ffffffffffffffff811115612a2c57600080fd5b6020830191508360208260051b850101111561120057600080fd5b803567ffffffffffffffff81168114612a5f57600080fd5b919050565b60008060008060608587031215612a7a57600080fd5b8435612a85816129ed565b9350602085013567ffffffffffffffff811115612aa157600080fd5b612aad87828801612a02565b9094509250612ac0905060408601612a47565b905092959194509250565b600060208284031215612add57600080fd5b61087782612a47565b60008060408385031215612af957600080fd5b8235612b04816129ed565b915060208301358015158114612b1957600080fd5b809150509250929050565b60008060408385031215612b3757600080fd5b8235612b42816129ed565b91506020830135612b19816129ed565b60008083601f840112612b6457600080fd5b50813567ffffffffffffffff811115612b7c57600080fd5b60208301915083602082850101111561120057600080fd5b600080600060408486031215612ba957600080fd5b8335612bb4816129ed565b9250602084013567ffffffffffffffff811115612bd057600080fd5b612bdc86828701612b52565b9497909650939450505050565b803563ffffffff81168114612a5f57600080fd5b600080600060608486031215612c1257600080fd5b612c1b84612a47565b92506020840135612c2b816129ed565b9150612c3960408501612be9565b90509250925092565b60008060408385031215612c5557600080fd5b612b4283612a47565b60008060408385031215612c7157600080fd5b612c7a83612a47565b9150612c8860208401612a47565b90509250929050565b600060208284031215612ca357600080fd5b5035919050565b600060208284031215612cbc57600080fd5b8135610877816129ed565b6001600160e01b031981168114611eb357600080fd5b60008060408385031215612cf057600080fd5b8235612cfb816129ed565b91506020830135612b1981612cc7565b600080600060408486031215612d2057600080fd5b612bb484612a47565b60008060408385031215612d3c57600080fd5b612d4583612a47565b9150612c8860208401612be9565b60008060008060608587031215612d6957600080fd5b8435612d74816129ed565b93506020850135612d84816129ed565b9250604085013567ffffffffffffffff811115612da057600080fd5b612dac87828801612b52565b95989497509550505050565b60008060208385031215612dcb57600080fd5b823567ffffffffffffffff811115612de257600080fd5b612dee85828601612a02565b90969095509350505050565b60005b83811015612e15578181015183820152602001612dfd565b50506000910152565b6000602082016020835280845180835260408501915060408160051b86010192506020860160005b82811015612e9257603f1987860301845281518051808752612e6f816020890160208501612dfa565b601f01601f19169590950160209081019550938401939190910190600101612e46565b50929695505050505050565b600080600060608486031215612eb357600080fd5b8335612ebe816129ed565b92506020840135612ece816129ed565b91506040840135612ede81612cc7565b809150509250925092565b60008060408385031215612efc57600080fd5b8235612d45816129ed565b60008060008060608587031215612f1d57600080fd5b8435612f28816129ed565b9350602085013567ffffffffffffffff811115612f4457600080fd5b612f5087828801612b52565b909450925050604085013565ffffffffffff81168114612f6f57600080fd5b939692955090935050565b634e487b7160e01b600052603260045260246000fd5b600060208284031215612fa257600080fd5b813561087781612cc7565b81835281816020850137506000828201602090810191909152601f909101601f19169091010190565b602081526000610bdb602083018486612fad565b600060208284031215612ffc57600080fd5b815161087781612cc7565b6001600160a01b03851681526001600160a01b0384166020820152606060408201526000611a27606083018486612fad565b634e487b7160e01b600052601160045260246000fd5b6000808585111561305f57600080fd5b8386111561306c57600080fd5b5050820193919092039150565b634e487b7160e01b600052604160045260246000fd5b6000808335601e198436030181126130a657600080fd5b83018035915067ffffffffffffffff8211156130c157600080fd5b60200191503681900382131561120057600080fd5b8284823760008382016000815283516130f3818360208801612dfa565b0195945050505050565b65ffffffffffff8181168382160190811115610c7857610c78613039565b65ffffffffffff861681526001600160a01b03851660208201526001600160a01b038416604082015260806060820152600061315b608083018486612fad565b979650505050505050565b80356001600160e01b03198116906004841015613195576001600160e01b0319808560040360031b1b82161691505b5092915050565b600082516131ae818460208701612dfa565b9190910192915050565b63ffffffff8281168282160390811115610c7857610c7861303956fe40c6c8c28789853c7efd823ab20824bbd71718a8a5915e855f6f288c9a26ad00a26469706673582212205192d975c6c035a0927e0776216e78c6a8e2f8bb6e0a83317153b9e3184599ab64736f6c634300081a0033",
  "linkReferences": {},
  "deployedLinkReferences": {}
}