{
  "_format": "hh-sol-artifact-1",
  "contractName": "OIDPermissionManager",
  "sourceName": "contracts/OIDPermissionManager.sol",
  "abi": [
    {
      "anonymous": false,
      "inputs": [
        {
          "indexed": false,
          "internalType": "bytes32",
          "name": "uid",
          "type": "bytes32"
        },
        {
          "indexed": false,
          "internalType": "address",
          "name": "account",
          "type": "address"
        },
        {
          "indexed": false,
          "internalType": "bool",
          "name": "granted",
          "type": "bool"
        }
      ],
      "name": "PermissionDeleted",
      "type": "event"
    },
    {
      "anonymous": false,
      "inputs": [
        {
          "indexed": false,
          "internalType": "bytes32",
          "name": "uid",
          "type": "bytes32"
        },
        {
          "indexed": false,
          "internalType": "address",
          "name": "account",
          "type": "address"
        },
        {
          "indexed": false,
          "internalType": "bool",
          "name": "granted",
          "type": "bool"
        }
      ],
      "name": "PermissionUpdated",
      "type": "event"
    },
    {
      "inputs": [
        {
          "internalType": "bytes32",
          "name": "uid",
          "type": "bytes32"
        },
        {
          "internalType": "address",
          "name": "account",
          "type": "address"
        }
      ],
      "name": "grantPermission",
      "outputs": [],
      "stateMutability": "nonpayable",
      "type": "function"
    },
    {
      "inputs": [
        {
          "internalType": "bytes32",
          "name": "uid",
          "type": "bytes32"
        },
        {
          "internalType": "address",
          "name": "account",
          "type": "address"
        }
      ],
      "name": "hasPermission",
      "outputs": [
        {
          "internalType": "bool",
          "name": "",
          "type": "bool"
        }
      ],
      "stateMutability": "view",
      "type": "function"
    },
    {
      "inputs": [
        {
          "internalType": "bytes32",
          "name": "uid",
          "type": "bytes32"
        },
        {
          "internalType": "address",
          "name": "account",
          "type": "address"
        }
      ],
      "name": "revokePermission",
      "outputs": [],
      "stateMutability": "nonpayable",
      "type": "function"
    }
  ],
  "bytecode": "0x6080604052348015600f57600080fd5b506101ae8061001f6000396000f3fe608060405234801561001057600080fd5b50600436106100415760003560e01c806328545c0d14610046578063a6a8f17b1461009e578063bc586456146100e6575b600080fd5b61008a61005436600461012f565b60009182526020828152604080842073ffffffffffffffffffffffffffffffffffffffff93909316845291905290205460ff1690565b604051901515815260200160405180910390f35b6100e46100ac36600461012f565b60009182526020828152604080842073ffffffffffffffffffffffffffffffffffffffff90931684529190529020805460ff19169055565b005b6100e46100f436600461012f565b60009182526020828152604080842073ffffffffffffffffffffffffffffffffffffffff90931684529190529020805460ff19166001179055565b6000806040838503121561014257600080fd5b82359150602083013573ffffffffffffffffffffffffffffffffffffffff8116811461016d57600080fd5b80915050925092905056fea2646970667358221220c36eef78e1e9e395e5d79e35ebd6c7b112a45eb667b35a6503ca1d76ad51e1a664736f6c634300081a0033",
  "linkReferences": {},
  "deployedLinkReferences": {}
}