{
  "_format": "hh-sol-artifact-1",
  "contractName": "OIDResolver",
  "sourceName": "contracts/OIDResolver.sol",
  "abi": [
    {
      "inputs": [
        {
          "internalType": "contract IEAS",
          "name": "initialEAS",
          "type": "address"
        }
      ],
      "stateMutability": "nonpayable",
      "type": "constructor"
    },
    {
      "inputs": [],
      "name": "AccessDenied",
      "type": "error"
    },
    {
      "inputs": [
        {
          "internalType": "address",
          "name": "authority",
          "type": "address"
        }
      ],
      "name": "AccessManagedInvalidAuthority",
      "type": "error"
    },
    {
      "inputs": [
        {
          "internalType": "address",
          "name": "caller",
          "type": "address"
        },
        {
          "internalType": "uint32",
          "name": "delay",
          "type": "uint32"
        }
      ],
      "name": "AccessManagedRequiredDelay",
      "type": "error"
    },
    {
      "inputs": [
        {
          "internalType": "address",
          "name": "caller",
          "type": "address"
        }
      ],
      "name": "AccessManagedUnauthorized",
      "type": "error"
    },
    {
      "inputs": [],
      "name": "InsufficientValue",
      "type": "error"
    },
    {
      "inputs": [],
      "name": "InvalidEAS",
      "type": "error"
    },
    {
      "inputs": [],
      "name": "InvalidInitialization",
      "type": "error"
    },
    {
      "inputs": [],
      "name": "InvalidLength",
      "type": "error"
    },
    {
      "inputs": [],
      "name": "NotInitializing",
      "type": "error"
    },
    {
      "inputs": [],
      "name": "NotPayable",
      "type": "error"
    },
    {
      "inputs": [
        {
          "internalType": "address",
          "name": "attester",
          "type": "address"
        }
      ],
      "name": "UnauthorizedAttester",
      "type": "error"
    },
    {
      "anonymous": false,
      "inputs": [
        {
          "indexed": false,
          "internalType": "address",
          "name": "authority",
          "type": "address"
        }
      ],
      "name": "AuthorityUpdated",
      "type": "event"
    },
    {
      "anonymous": false,
      "inputs": [
        {
          "indexed": false,
          "internalType": "uint64",
          "name": "version",
          "type": "uint64"
        }
      ],
      "name": "Initialized",
      "type": "event"
    },
    {
      "inputs": [
        {
          "components": [
            {
              "internalType": "bytes32",
              "name": "uid",
              "type": "bytes32"
            },
            {
              "internalType": "bytes32",
              "name": "schema",
              "type": "bytes32"
            },
            {
              "internalType": "uint64",
              "name": "time",
              "type": "uint64"
            },
            {
              "internalType": "uint64",
              "name": "expirationTime",
              "type": "uint64"
            },
            {
              "internalType": "uint64",
              "name": "revocationTime",
              "type": "uint64"
            },
            {
              "internalType": "bytes32",
              "name": "refUID",
              "type": "bytes32"
            },
            {
              "internalType": "address",
              "name": "recipient",
              "type": "address"
            },
            {
              "internalType": "address",
              "name": "attester",
              "type": "address"
            },
            {
              "internalType": "bool",
              "name": "revocable",
              "type": "bool"
            },
            {
              "internalType": "bytes",
              "name": "data",
              "type": "bytes"
            }
          ],
          "internalType": "struct Attestation",
          "name": "attestation",
          "type": "tuple"
        }
      ],
      "name": "attest",
      "outputs": [
        {
          "internalType": "bool",
          "name": "",
          "type": "bool"
        }
      ],
      "stateMutability": "payable",
      "type": "function"
    },
    {
      "inputs": [],
      "name": "authority",
      "outputs": [
        {
          "internalType": "address",
          "name": "",
          "type": "address"
        }
      ],
      "stateMutability": "view",
      "type": "function"
    },
    {
      "inputs": [],
      "name": "eas",
      "outputs": [
        {
          "internalType": "contract IEAS",
          "name": "",
          "type": "address"
        }
      ],
      "stateMutability": "view",
      "type": "function"
    },
    {
      "inputs": [
        {
          "internalType": "address",
          "name": "initialAuthority",
          "type": "address"
        }
      ],
      "name": "initialize",
      "outputs": [],
      "stateMutability": "nonpayable",
      "type": "function"
    },
    {
      "inputs": [],
      "name": "isConsumingScheduledOp",
      "outputs": [
        {
          "internalType": "bytes4",
          "name": "",
          "type": "bytes4"
        }
      ],
      "stateMutability": "view",
      "type": "function"
    },
    {
      "inputs": [],
      "name": "isPayable",
      "outputs": [
        {
          "internalType": "bool",
          "name": "",
          "type": "bool"
        }
      ],
      "stateMutability": "pure",
      "type": "function"
    },
    {
      "inputs": [
        {
          "components": [
            {
              "internalType": "bytes32",
              "name": "uid",
              "type": "bytes32"
            },
            {
              "internalType": "bytes32",
              "name": "schema",
              "type": "bytes32"
            },
            {
              "internalType": "uint64",
              "name": "time",
              "type": "uint64"
            },
            {
              "internalType": "uint64",
              "name": "expirationTime",
              "type": "uint64"
            },
            {
              "internalType": "uint64",
              "name": "revocationTime",
              "type": "uint64"
            },
            {
              "internalType": "bytes32",
              "name": "refUID",
              "type": "bytes32"
            },
            {
              "internalType": "address",
              "name": "recipient",
              "type": "address"
            },
            {
              "internalType": "address",
              "name": "attester",
              "type": "address"
            },
            {
              "internalType": "bool",
              "name": "revocable",
              "type": "bool"
            },
            {
              "internalType": "bytes",
              "name": "data",
              "type": "bytes"
            }
          ],
          "internalType": "struct Attestation[]",
          "name": "attestations",
          "type": "tuple[]"
        },
        {
          "internalType": "uint256[]",
          "name": "values",
          "type": "uint256[]"
        }
      ],
      "name": "multiAttest",
      "outputs": [
        {
          "internalType": "bool",
          "name": "",
          "type": "bool"
        }
      ],
      "stateMutability": "payable",
      "type": "function"
    },
    {
      "inputs": [
        {
          "components": [
            {
              "internalType": "bytes32",
              "name": "uid",
              "type": "bytes32"
            },
            {
              "internalType": "bytes32",
              "name": "schema",
              "type": "bytes32"
            },
            {
              "internalType": "uint64",
              "name": "time",
              "type": "uint64"
            },
            {
              "internalType": "uint64",
              "name": "expirationTime",
              "type": "uint64"
            },
            {
              "internalType": "uint64",
              "name": "revocationTime",
              "type": "uint64"
            },
            {
              "internalType": "bytes32",
              "name": "refUID",
              "type": "bytes32"
            },
            {
              "internalType": "address",
              "name": "recipient",
              "type": "address"
            },
            {
              "internalType": "address",
              "name": "attester",
              "type": "address"
            },
            {
              "internalType": "bool",
              "name": "revocable",
              "type": "bool"
            },
            {
              "internalType": "bytes",
              "name": "data",
              "type": "bytes"
            }
          ],
          "internalType": "struct Attestation[]",
          "name": "attestations",
          "type": "tuple[]"
        },
        {
          "internalType": "uint256[]",
          "name": "values",
          "type": "uint256[]"
        }
      ],
      "name": "multiRevoke",
      "outputs": [
        {
          "internalType": "bool",
          "name": "",
          "type": "bool"
        }
      ],
      "stateMutability": "payable",
      "type": "function"
    },
    {
      "inputs": [
        {
          "components": [
            {
              "internalType": "bytes32",
              "name": "uid",
              "type": "bytes32"
            },
            {
              "internalType": "bytes32",
              "name": "schema",
              "type": "bytes32"
            },
            {
              "internalType": "uint64",
              "name": "time",
              "type": "uint64"
            },
            {
              "internalType": "uint64",
              "name": "expirationTime",
              "type": "uint64"
            },
            {
              "internalType": "uint64",
              "name": "revocationTime",
              "type": "uint64"
            },
            {
              "internalType": "bytes32",
              "name": "refUID",
              "type": "bytes32"
            },
            {
              "internalType": "address",
              "name": "recipient",
              "type": "address"
            },
            {
              "internalType": "address",
              "name": "attester",
              "type": "address"
            },
            {
              "internalType": "bool",
              "name": "revocable",
              "type": "bool"
            },
            {
              "internalType": "bytes",
              "name": "data",
              "type": "bytes"
            }
          ],
          "internalType": "struct Attestation",
          "name": "attestation",
          "type": "tuple"
        }
      ],
      "name": "revoke",
      "outputs": [
        {
          "internalType": "bool",
          "name": "",
          "type": "bool"
        }
      ],
      "stateMutability": "payable",
      "type": "function"
    },
    {
      "inputs": [
        {
          "internalType": "address",
          "name": "newAuthority",
          "type": "address"
        }
      ],
      "name": "setAuthority",
      "outputs": [],
      "stateMutability": "nonpayable",
      "type": "function"
    },
    {
      "inputs": [],
      "name": "version",
      "outputs": [
        {
          "internalType": "string",
          "name": "",
          "type": "string"
        }
      ],
      "stateMutability": "view",
      "type": "function"
    },
    {
      "stateMutability": "payable",
      "type": "receive"
    }
  ],
  "bytecode": "0x61010060405234801561001157600080fd5b50604051610f4e380380610f4e83398101604081905261003091610079565b6001608052600360a052600060c052806001600160a01b038116610067576040516341bc07ff60e11b815260040160405180910390fd5b6001600160a01b031660e052506100a9565b60006020828403121561008b57600080fd5b81516001600160a01b03811681146100a257600080fd5b9392505050565b60805160a05160c05160e051610e656100e96000396000818161015801526108cb015260006102fc015260006102d3015260006102aa0152610e656000f3fe6080604052600436106100c05760003560e01c806391db0b7e11610074578063ce46e0461161004e578063ce46e04614610269578063e49617e11461027d578063e60c35051461029057600080fd5b806391db0b7e146101f9578063bf7e214f1461020c578063c4d66de81461024957600080fd5b80638150864d116100a55780638150864d1461014957806388e5b2d9146101905780638fb36037146101b357600080fd5b806354fd4d50146100fe5780637a9e5e4b1461012957600080fd5b366100f9576040517f1574f9f300000000000000000000000000000000000000000000000000000000815260040160405180910390fd5b005b600080fd5b34801561010a57600080fd5b506101136102a3565b6040516101209190610bdf565b60405180910390f35b34801561013557600080fd5b506100f7610144366004610c12565b610346565b34801561015557600080fd5b507f00000000000000000000000000000000000000000000000000000000000000005b6040516001600160a01b039091168152602001610120565b6101a361019e366004610c8e565b61042e565b6040519015158152602001610120565b3480156101bf57600080fd5b506101c86104fd565b6040517fffffffff000000000000000000000000000000000000000000000000000000009091168152602001610120565b6101a3610207366004610c8e565b610572565b34801561021857600080fd5b507ff3177357ab46d8af007ab3fdb9af81da189e1068fefdc0073dca88a2cab40a00546001600160a01b0316610178565b34801561025557600080fd5b506100f7610264366004610c12565b610631565b34801561027557600080fd5b5060006101a3565b6101a361028b366004610cff565b61076e565b6101a361029e366004610cff565b610781565b60606102ce7f0000000000000000000000000000000000000000000000000000000000000000610795565b6102f77f0000000000000000000000000000000000000000000000000000000000000000610795565b6103207f0000000000000000000000000000000000000000000000000000000000000000610795565b60405160200161033293929190610d3b565b604051602081830303815290604052905090565b336103787ff3177357ab46d8af007ab3fdb9af81da189e1068fefdc0073dca88a2cab40a00546001600160a01b031690565b6001600160a01b0316816001600160a01b0316146103d2576040517f068ca9d80000000000000000000000000000000000000000000000000000000081526001600160a01b03821660048201526024015b60405180910390fd5b816001600160a01b03163b600003610421576040517fc2f31e5e0000000000000000000000000000000000000000000000000000000081526001600160a01b03831660048201526024016103c9565b61042a82610835565b5050565b60006104386108c0565b838281146104595760405163251f56a160e21b815260040160405180910390fd5b3460005b828110156104ed57600086868381811061047957610479610d9a565b905060200201359050828111156104a35760405163044044a560e21b815260040160405180910390fd5b6104d08989848181106104b8576104b8610d9a565b90506020028101906104ca9190610db0565b50600190565b6104e15760009450505050506104f5565b9091039060010161045d565b506001925050505b949350505050565b7ff3177357ab46d8af007ab3fdb9af81da189e1068fefdc0073dca88a2cab40a0080546000919074010000000000000000000000000000000000000000900460ff1661054a57600061056c565b7f8fb36037000000000000000000000000000000000000000000000000000000005b91505090565b600061057c6108c0565b8382811461059d5760405163251f56a160e21b815260040160405180910390fd5b3460005b828110156104ed5760008686838181106105bd576105bd610d9a565b905060200201359050828111156105e75760405163044044a560e21b815260040160405180910390fd5b6106148989848181106105fc576105fc610d9a565b905060200281019061060e9190610db0565b82610924565b6106255760009450505050506104f5565b909103906001016105a1565b7ff0c57e16840df040f15088dc2f81fe391c3923bec73e23a9662efc9c229c6a00805468010000000000000000810460ff16159067ffffffffffffffff1660008115801561067c5750825b905060008267ffffffffffffffff1660011480156106995750303b155b9050811580156106a7575080155b156106de576040517ff92ee8a900000000000000000000000000000000000000000000000000000000815260040160405180910390fd5b845467ffffffffffffffff19166001178555831561071257845468ff00000000000000001916680100000000000000001785555b61071b8661094a565b831561076657845468ff000000000000000019168555604051600181527fc7f505b2f371ae2175ee4913f4499e1f2633a7b5936321eed1cdaeb6115181d29060200160405180910390a15b505050505050565b60006107786108c0565b60015b92915050565b600061078b6108c0565b61077b8234610924565b606060006107a28361095e565b600101905060008167ffffffffffffffff8111156107c2576107c2610dd1565b6040519080825280601f01601f1916602001820160405280156107ec576020820181803683370190505b5090508181016020015b600019017f3031323334353637383961626364656600000000000000000000000000000000600a86061a8153600a85049450846107f657509392505050565b7ff3177357ab46d8af007ab3fdb9af81da189e1068fefdc0073dca88a2cab40a0080546001600160a01b0383167fffffffffffffffffffffffff00000000000000000000000000000000000000009091168117825560408051918252517f2f658b440c35314f52658ea8a740e05b284cdc84dc9ae01e891f21b8933e7cad9181900360200190a15050565b336001600160a01b037f00000000000000000000000000000000000000000000000000000000000000001614610922576040517f4ca8886700000000000000000000000000000000000000000000000000000000815260040160405180910390fd5b565b6000610937610100840160e08501610c12565b61094081610a40565b5060019392505050565b610952610b43565b61095b81610baa565b50565b6000807a184f03e93ff9f4daa797ed6e38ed64bf6a1f01000000000000000083106109a7577a184f03e93ff9f4daa797ed6e38ed64bf6a1f010000000000000000830492506040015b6d04ee2d6d415b85acef810000000083106109d3576d04ee2d6d415b85acef8100000000830492506020015b662386f26fc1000083106109f157662386f26fc10000830492506010015b6305f5e1008310610a09576305f5e100830492506008015b6127108310610a1d57612710830492506004015b60648310610a2f576064830492506002015b600a831061077b5760010192915050565b6000610a737ff3177357ab46d8af007ab3fdb9af81da189e1068fefdc0073dca88a2cab40a00546001600160a01b031690565b6040517fd1f856ee000000000000000000000000000000000000000000000000000000008152600260048201526001600160a01b038481166024830152919091169063d1f856ee906044016040805180830381865afa158015610ada573d6000803e3d6000fd5b505050506040513d601f19601f82011682018060405250810190610afe9190610de7565b5090508061042a576040517f93693b7a0000000000000000000000000000000000000000000000000000000081526001600160a01b03831660048201526024016103c9565b7ff0c57e16840df040f15088dc2f81fe391c3923bec73e23a9662efc9c229c6a005468010000000000000000900460ff16610922576040517fd7e6bcf800000000000000000000000000000000000000000000000000000000815260040160405180910390fd5b610bb2610b43565b61095b81610835565b60005b83811015610bd6578181015183820152602001610bbe565b50506000910152565b6020815260008251806020840152610bfe816040850160208701610bbb565b601f01601f19169190910160400192915050565b600060208284031215610c2457600080fd5b81356001600160a01b0381168114610c3b57600080fd5b9392505050565b60008083601f840112610c5457600080fd5b50813567ffffffffffffffff811115610c6c57600080fd5b6020830191508360208260051b8501011115610c8757600080fd5b9250929050565b60008060008060408587031215610ca457600080fd5b843567ffffffffffffffff811115610cbb57600080fd5b610cc787828801610c42565b909550935050602085013567ffffffffffffffff811115610ce757600080fd5b610cf387828801610c42565b95989497509550505050565b600060208284031215610d1157600080fd5b813567ffffffffffffffff811115610d2857600080fd5b82016101408185031215610c3b57600080fd5b60008451610d4d818460208901610bbb565b601760f91b9083019081528451610d6b816001840160208901610bbb565b601760f91b600192909101918201528351610d8d816002840160208801610bbb565b0160020195945050505050565b634e487b7160e01b600052603260045260246000fd5b6000823561013e19833603018112610dc757600080fd5b9190910192915050565b634e487b7160e01b600052604160045260246000fd5b60008060408385031215610dfa57600080fd5b82518015158114610e0a57600080fd5b602084015190925063ffffffff81168114610e2457600080fd5b80915050925092905056fea26469706673582212208aba21ae7ee1238709c93d31f39e7ab30d96d3cf4e9cca3f608314eba16bb66264736f6c634300081a0033",
  "linkReferences": {},
  "deployedLinkReferences": {}
}